:020000040800F2
:10000000186100205D0200082F200008AB1E0008C8
:100010002D20000875080008492300080000000092
:100020000000000000000000000000009D0100082A
:10003000A908000800000000F901000831200008AC
:1000400077020008770200087702000877020008AC
:10005000770200087702000877020008770200089C
:1000600077020008AD080008770200087702000850
:10007000770200087702000877020008770200087C
:100080007702000877020008770200089D08000840
:100090007908000885080008910800087702000820
:1000A000770200087702000877020008770200084C
:1000B000770200087702000877020008770200083C
:1000C000770200087702000877020008770200082C
:1000D000770200087702000877020008770200081C
:1000E000770200087702000877020008770200080C
:1000F00077020008770200087702000877020008FC
:1001000077020008770200087702000877020008EB
:100110007702000877020008F12000087702000843
:1001200077020008770200087702000877020008CB
:1001300077020008770200087702000877020008BB
:1001400077020008770200087702000877020008AB
:10015000770200087702000877020008770200089B
:10016000770200087702000877020008770200088B
:1001700077020008770200087702000800000000FC
:100180007702000877020008DFF80CD000F0D4FAFC
:10019000004800470D2F0008186100202C4B1968FB
:1001A0000868B0E8F04F80F30988BFF36F8F4FF015
:1001B000000080F3118870470000000008480068C4
:1001C000006880F308884FF0000080F3148862B65E
:1001D00061B6BFF34F8FBFF36F8F00DF00BF00BF6B
:1001E00008ED00E0DFF80C00016841F470010160E7
:1001F000704700BF88ED00E0EFF30980BFF36F8F19
:10020000134B1A681EF0100F08BF20ED108A20E96A
:10021000F04F106009B44FF0500080F31188BFF325
:100220004F8FBFF36F8F04F07BFA4FF0000080F325
:10023000118809BC19680868B0E8F04F1EF0100F6B
:1002400008BFB0EC108A80F30988BFF36F8F704746
:10025000B0000020EFF3058070470000064880479B
:1002600006480047FEE7FEE7FEE7FEE7FEE7FEE79B
:10027000FEE7FEE7FEE7FEE7E1200008890100084F
:100280002DE9F05F0546002092469B4688460646CB
:10029000814640241BE0284641464746224600F05E
:1002A00082F853465A46C01A914110D31146184657
:1002B000224600F069F82D1A67EB01084F462246E6
:1002C0000120002100F060F817EB00094E41201ECC
:1002D000A4F10104DFDC484631462A464346BDE826
:1002E000F09F40EA01039B0703D009E008C9121FF1
:1002F00008C0042AFAD203E011F8013B00F8013BE0
:10030000521EF9D27047D2B201E000F8012B491E0B
:10031000FBD270470022F6E710B513460A460446A2
:100320001946FFF7F0FF204610BD30B505462A46B6
:100330000B4612F8010B13F8014B08B1A042F8D09C
:100340001CB1002802D06D1CF1E7284630BD421CCC
:1003500010F8011B0029FBD1801A704730B50B46FD
:10036000014600202022012409E021FA02F59D42E5
:1003700005D303FA02F5491B04FA02F52844151EB9
:10038000A2F10102F1DC30BD202A04DB203A00FAA0
:1003900002F1002070479140C2F1200320FA03F3DC
:1003A000194390407047202A04DB203A21FA02F0DA
:1003B0000021704721FA02F3D040C2F1200291409F
:1003C0000843194670472DE9FE4F804681EA030035
:1003D000C00F0C46009021F0004123F00045B8EB1F
:1003E0000200A94105D24046214690461C460B46D4
:1003F000024623F00040104347D0270DC7F30A0000
:10040000C3F30A510290401A019040286BDAC3F3FB
:10041000130040F4801B0098924620B10023D2EBD9
:10042000030A63EB0B0B01985946C0F1400250469A
:10043000FFF7AAFF06460D4650465946019A00F0BE
:100440008DF910EB08006141002487EA115284EA1B
:10045000E7731A4340D0009A62B3019A012A4FEA27
:10046000075215DC001B61EB02014FF0004202EA6B
:100470000752CDE90042001C41F5801132462B465F
:1004800000F08DF903B0BDE8F08F40462146F9E752
:10049000001B61EB0201001C41F5801300185B4159
:1004A0002018A2F5001747EB030140EAD570B619F2
:1004B0006D4111E06D084FEA360645EAC0754FEA16
:1004C0000752001B61EB0201001C41F58011490835
:1004D0004FEA30000019514132462B4603B0BDE8C7
:1004E000F04F00F04DB90098012240000023D0EBFE
:1004F000020263EBE073009821464FEAE074B8EB28
:10050000000061EB0401E9E783F000435BE781F061
:10051000004158E72DE9FE4F81EA030404F000444E
:1005200021F0004100944FF0000B23F0004350EA0B
:1005300001045ED052EA03045BD0C3F30A54C1F352
:100540000A552C44A4F2F3340194A0FB0254C1F3E5
:10055000130141F48011C3F3130343F4801301FB2F
:10056000024400FB034E840A970A44EA815447EA96
:100570008357A4FB076802958D0A05FB07854FEAA0
:10058000932C04FB0C542705029D4FEA065847EABA
:100590001637B5EB08056EEB070C870E920E47EA8F
:1005A000811742EA8312A7FB0201B6EB0B0164EB51
:1005B00000042B0D43EA0C335E1844EB1C50DA4662
:1005C0005146E7FB0201C5F313044FEA0B3343EA3C
:1005D00014534FEA0432019C43EA0603A4F10C04CD
:1005E0000294009CCDE900B400F0D9F803B0BDE856
:1005F000F08F00200146F9E72DE9F04D81EA030470
:1006000004F0004B21F0004514464FF0000A23F09F
:10061000004150EA050220D054EA01021DD0C5F382
:100620000A570246C5F31303C1F31300C1F30A5678
:1006300040F4801543F48013A7EB0608101BD64640
:1006400008F2FD3873EB050002D308F1010801E060
:1006500092185B41B8F1000F03DA00200146BDE8B3
:10066000F08D00204FF48011064684460EE0171BE3
:1006700073EB050705D3121B63EB050306434CEA36
:10068000010C49084FEA300092185B4150EA01071B
:10069000EDD152EA030012D082EA040083EA050198
:1006A000084305D0101BAB4106D20122002306E00F
:1006B00000224FF0004302E06FF0010253101AEBEA
:1006C00006004CEB085110EB0A0041EB0B01BDE8B2
:1006D000F04D00F055B8C1F30A52C1F3130140F2D6
:1006E000FF3341F480119A4202DA0020014670473C
:1006F00040F233439A42A2F2334202DC5242FFF705
:1007000052BEFFF741BE000030B5041E71F1000477
:1007100004DB4FF00044404264EB0101141E73F10E
:10072000000405DB1C464FF00043524263EB040318
:10073000994208BF904230BD064C074D06E0E06884
:1007400040F0010394E8070098471034AC42F6D318
:10075000FFF71EFD2457000844570008202A06DB37
:10076000CB17203A41FA02F043EAE07306E041FA7F
:1007700002F3D040C2F1200291400843194670476D
:1007800010B5141E73F1000408DA401C41F1000199
:1007900092185B411A4301D120F0010010BD2DE9F0
:1007A000F04D92469B4611B1B1FA81F202E0B0FAE7
:1007B00080F220329046FFF7E7FD04460F4640EAFC
:1007C0000A0041EA0B0153465A46084313D011462A
:1007D00053EA010019D0C8F140025046FFF7E3FD8B
:1007E00005460E46504659464246FFF7CDFD0843A2
:1007F00005D0012004E020463946BDE8F08D0020F8
:10080000054346EAE0762C4337430A986305E40A39
:10081000A0EB08000022FD0A44EA47540A3002D542
:1008200000200146E9E7010510196941DDE90845A5
:1008300000196941BDE8F04DA2E730B58C1810F8F9
:10084000012B12F00F0301D110F8013B120906D160
:1008500010F8012B03E010F8015B01F8015B5B1E4F
:10086000F9D101E001F8013B521EFBD1A142E6D3D0
:10087000002030BDFEE70000014800F096B90000FE
:1008800024130020014800F090B900002413002038
:10089000014800F08AB9000024130020014800F04C
:1008A00084B90000241300207047000010B5012116
:1008B000044800F0FDFC03F0B3FCBDE81040082044
:1008C00000F0F2BB0010024090F82020012A07D06F
:1008D000022A05D0416A41F480214162012070471B
:1008E000006842690A43426100207047F0B590F801
:1008F00020500468A468012D05D0022D03D0416A60
:1009000041F4802153E014F0406F01D1E5004BD554
:10091000C4F30164022C03D9416A41F4000146E0AA
:100920000125A5401D608D684FF4C0739DB1CE6850
:1009300035434E6845EAC605066803EB0417F551D2
:100940004FF4C275076805EB04150E697E51097DE9
:10095000012905D009E00E88CD6845EA4655EBE748
:1009600001684E5946F480764E511179D2F80550FF
:100970004FF4C67641EA0525016806EB04168D5151
:100980001178D2F801204FF4C47541EA02210268BF
:1009900005EB04155151006803EB0411425842F075
:1009A000010242500020F0BD416A41F40011416251
:1009B0000120F0BD10B590F82020012A07D0022AAE
:1009C00005D0416A41F480214162012010BD3B48BD
:1009D000D0F8002242F00102C0F80022D0F8002234
:1009E00022F47C52C0F80022D0F800224B6A42EA7E
:1009F0000322C0F800220A7D02F01F0301229A4060
:100A0000D0F81C329343C0F81C32CB69B3B9D0F88C
:100A10000C329343C0F80C328C894B6864F31F434B
:100A20004C6900EBC404C4F840320C890B6864F3D1
:100A30001F434C6900EBC404C4F84432CB69012B5A
:100A400016D1D0F80C321343C0F80C320C884B6826
:100A500064F31F434C6900EBC404C4F840320C89B2
:100A6000CB6864F31F434C6900EBC404C4F8443200
:100A70008B69002BD0F804320ED01343C0F8043237
:100A80000B69002BD0F8143208D01343C0F814328D
:100A9000096A012904D008E09343EFE79343F5E79F
:100AA000D0F81C121143C0F81C12D0F8001221F02B
:100AB0000101C0F80012002010BD000000640040D9
:100AC000704730B590F82040012C05D0022C03D09F
:100AD000416A41F480215DE00468002955D0246911
:100AE000A40754D04FF4D874056804EB01142D59B1
:100AF00015F00405956005682D594ED0ED08556038
:100B000005682C5904F00204D4604FF4DA740568C7
:100B100004EB01142D5905F00F05156105682D59D9
:100B2000C5F30725956105682C59240C54614FF4D1
:100B3000DC72046802EB0112A4581C700468A4580B
:100B4000240A5C700468A458240C9C700468A258A1
:100B5000120EDA704FF4DE72046802EB0112A45830
:100B60001C710468A458240A5C710468A458240CFD
:100B70009C710468A258120EDA71006881B1016993
:100B800041F020010161002030BDE468A8E7416A1E
:100B900041F400114162012030BD6D0D1560AFE7D9
:100BA000C16841F02001C160EDE72DE9F05F054625
:100BB000006800244669D0F804908768D0F80CB02B
:100BC000D0F810A0D0F81880F10748D0F90714D059
:100BD00001218160B80703D5284600F04AFA0CE0ED
:100BE000780702D54FF4006407E0380702D54FF4C8
:100BF000805402E0284600F03BFAF80516D5296833
:100C00004FF480708860B80503D5284600F033FAA9
:100C10000CE0780502D544F4005407E0380502D50D
:100C200044F4804402E0284600F024FAF80316D584
:100C300029684FF480308860B80303D5284600F057
:100C40001CFA0CE0780302D544F4004407E03803B2
:100C500002D544F4803402E0284600F00DFA300753
:100C600007D55FEACB6004D52968102044F40074EE
:100C7000C86070074FF0080707D55FEA0B7004D50E
:100C80002868C760284600F081F9B00706D52868B3
:100C9000C068800702D0284600F07AF9700607D5B0
:100CA0005FEACA6004D52968102044F480640861B2
:100CB000B00607D55FEA0A7004D5286807612846A0
:100CC00000F0A6F9F00606D528680069800702D072
:100CD000284600F09EF9B00308D55FEAC96005D543
:100CE000296810204860284600F094F9F00307D5E1
:100CF0005FEA097004D528684760284600F0BEF90D
:100D0000300446D55FEA497040D5F00504D55FEA66
:100D1000C87001D044F00104B00504D55FEA8870C2
:100D200001D544F00204700504D55FEA487001D58E
:100D300044F00404300529D518F0700F26D008F0CF
:100D40007000402815D006DC102809D020280AD0D1
:100D5000302816D10AE050280ED0602811D10EE0BC
:100D600044F008040DE044F010040AE044F02004CC
:100D700007E044F0400404E044F0800401E044F45F
:100D800080742868816921F07001816129680420DC
:100D90004860002C05D0686A204368622846FFF747
:100DA0008FFEBDE8F09F70B5040003D094F82000DA
:100DB00010B104E0012070BD204600F091F82068D9
:100DC000016841F00101016000F080FA0546052646
:100DD00004E000F07BFA401B0A2811D82068406824
:100DE000C007F6D02068016821F00201016000F020
:100DF0006DFA05460BE000F069FA401B0A2806D997
:100E0000606A40F40030606284F82060D2E72068B5
:100E100040688007EFD4207E0128206801683DD01B
:100E200021F080010160607E01282068016838D0CF
:100E300021F040010160A07E01282068016833D0C4
:100E400021F020010160E07E0128206801682ED099
:100E500041F010010160207F01282068016829D03D
:100E600021F008010160607F01282068016824D01A
:100E700021F004010160D4E902010843D4E904121D
:100E8000114308436168491E08432168C861002076
:100E90006062012084F82000002070BD41F08001D4
:100EA000C0E741F04001C5E741F02001CAE721F069
:100EB0001001CFE741F00801D4E741F00401D9E780
:100EC0000346002093F82020012A01D0022A05D1F0
:100ED0001A6889069268914300D00120704700008B
:100EE00010B586B0044614216846FFF713FA24496A
:100EF0002068884241D123480021026842F00072F4
:100F00000260006800F0007005901E48103802680A
:100F100042F001020260006800F0010005904FF409
:100F2000C05000900220CDE9010103200390092068
:100F300004906946144800F0C3F8002205211320EC
:100F400000F050FA132000F03FFA0022052114208F
:100F500000F048FA142000F037FA0022052115208D
:100F600000F040FA152000F02FFA0022052116208B
:100F700000F038FA162000F027FA06B010BD000085
:100F8000006400404038024000000240704700000A
:100F900010B50E4B0E4A00210E48FFF792FD0B498B
:100FA0000B4C193910B10120487007E0206858B186
:100FB000032048700848006802F0E0F82169BDE8A5
:100FC000104006A001F0C2B90220F2E7850000201F
:100FD00080020020241300209800002074686520FF
:100FE00064617461207761732072656365697665F9
:100FF000642066726F6D2043414E2C2064617461E1
:10100000206C656E6774682069732025640A0D0082
:10101000704770477047000070B5044690F8200094
:10102000012804D0606A40F40020606218E00220C9
:1010300084F820002068016821F00101016000F0BF
:1010400045F905460EE000BF00F040F9401B0A28B4
:1010500008D9606A40F400306062052084F82000FE
:10106000012070BD20684068C007EDD1606270BD8E
:10107000704770477047704770477047704700006F
:1010800070B5044600F022F90546601C02D0044801
:101090000078044400F01AF9401BA042FAD370BD56
:1010A000A000002070470000044910B50A68024201
:1010B00002D00860FFF7F6FF10BD0000143C0140AD
:1010C0002DE9F84FDFF8BCA1002201250AF1040B3D
:1010D00003264FF00F090BF1040E00BF0B6805FA51
:1010E00002F42340A34270D10F7907F00307012FC8
:1010F00001D0022F16D187684FEA420806FA08FC91
:1011000027EA0C07D1F80CC00CFA08FC4CEA070CD3
:10111000C0F808C04768A7430C79C4F30014944092
:101120003C4344600C79E443A4070AD0C4684FEA06
:10113000420C06FA0CF7BC438F6807FA0CF72743FA
:10114000C7600C7904F00304022C12D1D40800EB20
:10115000840CDCF820405707FF0E09FA07F824EA50
:101160000804D1F8108008FA07F848EA0408CCF817
:10117000208004684FEA420C06FA0CF7BC430F7952
:1011800007F0030707FA0CF7274307604C6814F4CD
:10119000403F70D03C4C276847F480472760246864
:1011A00022F0030704F480440094384C07EB040C4D
:1011B000DCF8084897074FEA177809FA08F7BC43A4
:1011C000334FB84202D1002724E054E0314FB842F7
:1011D00001D101271EE0304FB84201D1022719E0AA
:1011E0002E4FB84201D1032714E02D4FB84201D150
:1011F00004270FE02B4FB84201D105270AE02A4F00
:10120000B84201D1062705E0284FB84201D107278F
:1012100000E0082707FA08F72743CCF80878DAF83F
:1012200000405746D1F804C09C435FEACC3C00D54F
:101230001C433C60DBF800405F46D1F804C09C438F
:101240005FEA8C3C00D51C433C60DEF800407746EA
:10125000D1F804C09C435FEACC2C00D51C433C6011
:10126000084F0C373C68D1F804C09C435FEA8C2CD3
:1012700000D51C433C60521C102AFFF42FAFBDE880
:10128000F88F0000003C014044380240003001402B
:10129000000002400004024000080240000C02402E
:1012A000001002400014024000180240001C0240DE
:1012B000426921EA02030A4043EA02418161704720
:1012C0000AB1816170470904FBE7000001488068AA
:1012D00070470000A0000020024881680278114495
:1012E00081607047A00000200B4810B5016841F4F0
:1012F00000710160016841F480610160016841F49E
:1013000080710160032000F08DF8002000F006F8E5
:1013100000F03EF8002010BD003C024010B5014630
:1013200088B00022362000F05DF8362000F04CF83E
:1013300013480024016841F010010160006805A90C
:1013400000F010000690684600F018F900F036F939
:101350000C494000B0FBF1F10C480B4A491E0260F9
:1013600040F2E732C0E90324C0E9011400F02EFB8B
:1013700010B1012008B010BD044800F055FBF9E79A
:101380004038024040420F0000100040FC13002093
:101390000C4882B0016841F480410160006800F4AB
:1013A000804000900748001F016841F080510160B3
:1013B0000068002200F0805000900F21901E02B0C3
:1013C00000F010B844380240002809DB00F01F028A
:1013D000012191404009800000F1E020C0F8001197
:1013E00070470000F0B40E4B1B680C46C3F3022399
:1013F000C3F10705042D00D90425191D072901D2C1
:10140000002300E0DB1E012606FA05F1491E2140FB
:1014100099409E40761E16403143F0BC00F0BABFA2
:101420000CED00E0064900F0070208684FF6FF03E4
:10143000184040EA0220034A104308607047000049
:101440000CED00E00000FA052DE9F0470E4605001E
:1014500065D0DFF81481D8F80000F7B200F007007B
:10146000B04207D288F80070D8F8000000F00700FA
:10147000B04254D128683D4C810712D5400703D5AE
:10148000206840F4E05020602878000703D52068E9
:1014900040F4604020602068A96820F0F000084314
:1014A00020602878C0072DD03049686808390128A5
:1014B00012D0022813D0032811D009688907002907
:1014C0002DDA216821F0030101432160FFF7FEFEC0
:1014D000814641F2883A0EE009688903EFE709681E
:1014E0008901ECE7FFF7F2FEA0EB0901514502D9B3
:1014F0000320BDE8F0872068696800F00C00B0EBBD
:10150000810FEFD1D8F80010404601F00701B14239
:1015100007D90770006800F00700B04201D0012031
:10152000E7E72878400705D52068E96820F4E0500F
:10153000084320602878000706D52068296920F430
:10154000604040EAC100206000F058F82168084A75
:10155000C1F30311515CC8400649086006480068A1
:10156000FFF7DCFE0020C4E7003C024008380240E0
:10157000CC560008AC000020A40000200F2202601E
:101580000C4A136803F003034360136803F0F0038D
:101590008360136803F4E053C36012684FF4E053B0
:1015A00003EAD20202610448006800F00700086004
:1015B0007047000008380240003C024004480549DA
:1015C00000680968044AC1F38221515CC840704731
:1015D000AC00002008380240DC56000804480549E9
:1015E00000680968044AC1F34231515CC840704741
:1015F000AC00002008380240DC560008154810B541
:10160000006810F00C02144813D04110042A0FD0C7
:10161000082A0ED10F4C241F2268236802F03F02D3
:101620005B0207D52068C0F38810A0FB010106E02B
:10163000084610BD2168C1F38811A1FB00010023F9
:10164000FEF71EFE2168C1F30141491C4900B0FBB1
:10165000F1F010BD083802400024F4002DE9F84FE5
:1016600004006ED02078DFF84C93C007A9F1040580
:101670004AD009F104000168C1F38101012908D0B1
:101680000068C0F3810002280AD1D9F800004002A6
:1016900006D52868800337D560680028E1D033E09C
:1016A0006068B0F5803F10D0B0F5A02F286810D04A
:1016B00020F480302860286820F48020286060684A
:1016C000A8B1FFF703FE06460DE0286840F480301D
:1016D000F4E740F480202860F7E700BFFFF7F6FD4D
:1016E000801B642873D828688003F7D50CE0FFF7C7
:1016F000EDFD064605E000BFFFF7E8FD801B64280E
:10170000F0D828688003F7D42078DFF8AC8280070F
:101710004FF0000A3ED5A748001D016811F00C0FDC
:1017200008D00068C0F3810002280BD1D9F800006E
:10173000400207D42868800716D5E068012800D148
:1017400012E033E1E068B8B10120C8F80000FFF70B
:10175000BDFD064605E000BFFFF7B8FD801B02286F
:10176000C0D828688007F7D52868216920F0F800DC
:1017700040EAC10028600DE0C8F800A0FFF7A6FD10
:10178000064604E0FFF7A2FD801B02281FD8286848
:101790008007F7D42078000722D5864F87486169F3
:1017A000703771B101210160FFF790FD064604E03A
:1017B000FFF78CFD801B022809D838688007F7D511
:1017C0000EE0C0F800A0FFF781FD064605E082E0CC
:1017D000FFF77CFD801B02287DD838688007F7D48E
:1017E0002078400768D5DFF8CCB100270BF13C0B1F
:1017F000DBF80000C0000BD4DBF8001041F0805192
:10180000CBF80010DBF80000012700F080500090BA
:101810006B4E3068C00510D4306840F48070306082
:10182000FFF754FD009005E0FFF750FD0099401AC6
:10183000022850D83068C005F6D55E4EA0686C36D8
:1018400001280FD00528306810D020F0010030604A
:10185000306820F004003060A068B8B1FFF736FDB2
:1018600000900FE0306840F00100F4E740F0040021
:101870003060F7E7FFF72AFD0099411A41F28830FE
:10188000814266D830688007F4D50EE0FFF71EFD70
:10189000009007E0FFF71AFD0099411A41F28830E5
:1018A000814256D830688007F4D42FB1DBF800109D
:1018B00021F08051CBF80010A069C8B33D49091D43
:1018C0000968C1F3810102294AD00228504607D095
:1018D000C8F8600000E03CE0FFF7F8FC04463BE09D
:1018E0004746C8F86000FFF7F1FC064605E000BF78
:1018F000FFF7ECFC801B02282BD828688001F7D466
:10190000D4E907010843A16A2E4A490802EB0141C4
:10191000626A41EA8211084394F82C1040EA01619E
:10192000C9F8001001203866FFF7D0FC044606E035
:101930003EE000BFFFF7CAFC001B022809D8286858
:101940008001F7D534E000BFFFF7C0FC001B022880
:1019500002D90320BDE8F88F28688001F4D427E07D
:101960000128F7D0D9F80000E26900F48001914223
:101970001CD1226A00F03F01914217D147F6C07195
:10198000626A0140B1EB821F10D1A26A4FF0FF33AF
:1019900000F4403103EB5202B1EB024F06D194F850
:1019A0002C1000F07060B0EB016F01D00120D1E786
:1019B0000020CFE70438024000004742800E474233
:1019C000007000400000FFFF7047704710B5040032
:1019D00003D094F83D0010B107E0012010BD0020B5
:1019E00084F83C00204600F01EF8022084F83D00F8
:1019F000211D206800F082FB012084F8460084F855
:101A00003E0084F83F0084F8400084F8410084F8E8
:101A1000420084F8430084F8440084F8450084F8C8
:101A20003D00002010BD704790F83D10012901D005
:101A300001207047022180F83D100168CA6842F019
:101A40000102CA6000681149884214D0B0F1804F89
:101A500011D00F4988420ED00E4988420BD00E4952
:101A6000884208D00D49884205D00D49884202D0ED
:101A70000C49884204D1816801F00701062903D08E
:101A8000016841F001010160002070470000014041
:101A90000004004000080040000C00400004014029
:101AA0000040014000180040704770B504460068CF
:101AB00001694FF00005C943890715D4C168C943BE
:101AC000890711D4E91E016101202077206880690F
:101AD0008007204602D0FFF7E7FF04E000F098F807
:101AE000204600F096F8257720680169C943490728
:101AF00017D4C168C943490713D46FF004010161C9
:101B0000022020772068806910F4407F204602D0B0
:101B1000FFF7CAFF04E000F07BF8204600F079F8F8
:101B2000257720680169C943090716D4C168C943EC
:101B3000090712D46FF008010161042020772068A2
:101B4000C0698007204602D0FFF7AEFF04E000F036
:101B50005FF8204600F05DF8257720680169C943E9
:101B6000C90617D4C168C943C90613D46FF0100160
:101B70000161082020772068C06910F4407F20466A
:101B800002D0FFF791FF04E000F042F8204600F099
:101B900040F8257720680169C943C90708D1C168A1
:101BA000C943C90704D1891E0161204600F032F8FB
:101BB00020680169C943090609D4C168C9430906F7
:101BC00005D46FF0800101612046FFF7FDFE20681B
:101BD0000169C943490609D4C168C943490605D406
:101BE0006FF040010161204600F01EF82068016995
:101BF000C94389060BD4C168C943890607D46FF06D
:101C0000200101612046BDE87040FFF7DEBE70BDD7
:101C10007047704700680349884201D1FFF75CBBF9
:101C20007047000000100040704770B5040004D0F9
:101C300094F83D00002510B106E0012070BD84F845
:101C40003C50204600F022F8242084F83D00206813
:101C5000C16821F40051C160204600F0B3FA206849
:101C6000016921F4904101612068416921F02A0154
:101C700041612068C16841F40051C16025642020A1
:101C800084F83D0084F83E00002070BD30B587B078
:101C9000044614216846FEF73DFB224D21680024CE
:101CA000214803220223A9421BD11F4910310C688D
:101CB00044F400240C60096801F4002105910168D6
:101CC00041F0010101600068694600F001000590E3
:101CD0000120CDE9020208200490CDE90023134839
:101CE0001CE0134DA9421BD10F4914310D6845F07A
:101CF00010050D60096801F010010591016841F0BF
:101D0000020101600068694600F002000590C020F1
:101D10008DE819000720CDE903200648FFF7D0F928
:101D200007B030BD004C0040303802400000024097
:101D300000100140000402402DE9F84F044690F8DD
:101D40003E009A4616460D46202853D1FDB1F6B105
:101D500094F83C0001284DD0012084F83C00002775
:101D60002764222084F83E002763FFF7AFFAA68598
:101D70008146E685A0684FF48058404501D120692E
:101D800040B12E465FF0000584F83C7027E001204A
:101D9000BDE8F88F0026F7E74B46002220212046B9
:101DA000CDF800A000F094FA08B10320F0E726B1C6
:101DB000A06840451BD038B108E020684068C0F3F7
:101DC000080025F8020B07E0206980B12068406810
:101DD00000F07F0006F8010BE08D401EE085E08DED
:101DE0000028D9D1202084F83E000020D0E72068C8
:101DF0004068EFE70220CBE72DE9F843044690F86E
:101E00003D001F4616460D4620284CD1C5B1BEB137
:101E100094F83C00012846D0012084F83C004FF0A3
:101E20000008C4F84080212084F83D00FFF74EFAF6
:101E3000A6848146E684A068B0F5805F03D004E004
:101E40000120BDE8F883206928B12E465FF0000527
:101E500084F83C800EE00026FAE78021204600F05E
:101E600037FAA0B9AEB116F8010B21684860E08CD2
:101E7000401EE084E08C4B464FF0000200970028A3
:101E8000EBD14FF04001204600F022FA30B10320A0
:101E9000D7E735F8020BC0F30800E6E7202084F806
:101EA0003D000020CDE70220CBE7FEE770B51948E2
:101EB0001749002401600F21C0E901144FF440319B
:101EC000C0E903414FF48011416104760125457654
:101ED0008476C57604774477FEF765FF08B172B65D
:101EE000FEE70C480E21B030446104610460446098
:101EF0008460C0E90851C460C0E906450146B038B5
:101F0000FEF758FD002801D072B6FEE770BD000054
:101F100000640040241300202DE9F04F87B0142105
:101F20006846FEF7F7F93C484FF0000B016841F0B6
:101F300004010160016801F004010591016841F0AC
:101F400080010160016801F080010591016841F0A4
:101F500001010160016801F001010591016841F092
:101F600002010160016801F002010591016841F080
:101F7000100101600068DFF8A48000F010000590F7
:101F800000220C214046FFF79BF9DFF894904FF4B4
:101F90008167002239464846FFF792F9DFF884A0AE
:101FA000012203215046FFF78BF90C200124022562
:101FB00003268DE8710069464046FFF781F804204A
:101FC000CDE9000B694602954846FFF779F801AA6A
:101FD000009782E8700069464846FFF771F80820CC
:101FE00000904FF48810CDE9010569460E48FFF7CF
:101FF00067F8CDE90064CDE9024669465046FFF72F
:102000005FF8002205210920FFF7ECF90920FFF70E
:10201000DBF907B0BDE8F08F30380240000802401D
:10202000000002400010024000040240FEE7FEE70C
:1020300010B54FF0E020006903F0E4F8012803D068
:10204000BDE8104002F024BC10BD000030B593B0D4
:1020500030216846FEF75EF914210CA8FEF75AF904
:102060001D480025016841F080510160006800F0C2
:10207000805011901948016841F480410160006866
:10208000022400F48040119001200090000401908F
:102090008001CDE9064008AA0420A82182E81300A7
:1020A0000B906846FFF7DAFA08B172B6FEE70CA9A2
:1020B0000F2081E831004FF4A0500F904FF4805072
:1020C000109005210CA8FFF7BFF9002801D072B6C7
:1020D000FEE713B030BD0000403802400070004001
:1020E0000248016841F470010160704788ED00E02A
:1020F0000148FFF7DABC0000FC130020F0B50268CD
:10210000254C264D264E274F274B4FF0804CA042A2
:1021100009D0604507D0A84205D0B04203D0B842EC
:1021200001D0984204D122F0700E4A6842EA0E02B1
:10213000A0421BD0604519D0A84217D0B04215D09C
:10214000B84213D0984211D0184DA8420ED0184D65
:10215000A8420BD0174DA84208D0174DA84205D071
:10216000164DA84202D0164DA84203D122F4407564
:10217000CA682A434D6922F080022A4302608A68B5
:10218000C2620A688262A04201D0984201D1096904
:10219000016301214161F0BD0000014000040040E5
:1021A00000080040000C00400004014000400140D5
:1021B000004401400048014000180040001C00405D
:1021C0000020004070B5044600680169E26821F40F
:1021D0004051114301612169A068E26908436169C6
:1021E000114308432168CA6849F20C639A430243C9
:1021F000CA6020684169A26921F4407111434161BC
:1022000031492068884202D03049884202D1FFF724
:10221000E5F901E0FFF7D2F9E2690023192164250D
:102220003226B2F5004F626828D0A0FB0101930F5F
:102230009200FEF725F80146B0FBF5F06FF01802AA
:10224000504301EB800006EB0010B0FBF5F000F00E
:10225000F002B1FBF5F002EB0012B1FBF5F06FF00C
:102260001803584301EB800006EB0010B0FBF5F0BB
:1022700000F00F0021681044886070BDA0FB0101D0
:1022800092185B41FDF7FCFF0146B0FBF5F002013F
:10229000B1FBF5F06FF01803584301EB800006EB3B
:1022A000C000B0FBF5F000F0F80002EB4002B1FB1B
:1022B000F5F0584301EB800006EBC000B0FBF5F0F1
:1022C00000F00700D6E700000010014000140140B4
:1022D0002DE9F041984617460E460446069D27E034
:1022E000681C25D02DB1FEF7F1FFA0EB0800A84235
:1022F0001ED920680C3050E8001F21F4D07140E84E
:102300000012002AF5D12068143050E8001F21F097
:10231000010140E80012002AF5D1202084F83D0098
:1023200084F83E00002084F83C000320BDE8F081E2
:102330002068006836EA000004D00020B842CFD000
:102340000020F3E70120F9E7FEE700000FB4054B9A
:1023500010B503A9044A029800F0FEF810BC5DF81D
:1023600014FB0000F52E0008300100200FB4084BCC
:1023700010B504A902AA039800F0EEF8044602A9D9
:10238000002000F080FC204610BC5DF814FB00002B
:10239000872C00080907090E002804DB00F1E02063
:1023A00080F80014704700F00F0000F1E02080F882
:1023B000141D704702E008C8121F08C1002AFAD194
:1023C00070477047002001E001C1121F002AFBD1B5
:1023D000704700002DE9FF5F82B00021DDE9043085
:1023E000020DDDF840B0034318D044F61050A2F2BD
:1023F000FF3242431514119801281FD0A5EB0B00A2
:10240000401C5FEA000A4FF000064E4FDFF838919B
:10241000B046504615D5CAF1000413E011980124C6
:102420004AA3012801D16FEA0B010298119AC0E971
:102430000031C0E9024206B0BDE8F09FCBF10000D8
:10244000DFE704460021404A491842EB0450CDE939
:10245000001012E0E00707D032463B4640464946AE
:10246000FEF758F88046894632463B4610461946E4
:10247000FEF750F806460F466410002CEAD1DDE95D
:102480000401DDE90023BAF1000F06DAFEF742F895
:1024900042464B46FEF73EF805E0FEF7ADF84246F1
:1024A0004B46FEF7A9F804460E460022284BFEF7DD
:1024B0002BF903D84FF0FF30014607E00022254BEF
:1024C00020463146FDF77FFFFEF705F9102409E0AD
:1024D000002C0ADB0A220023FDF7D2FE039B3032D8
:1024E0001A55641E50EA0102F2D1641C039AC4F129
:1024F00011031444119A012A03D0012208430DD17B
:102500000AE0084304D000204FF0110B119072E74D
:10251000A3EB0B056D1E0DE05B4504DD4FF00002E3
:1025200005F1010504E003DA4FF00002A5F1010511
:10253000002AECD002981199C0E90231C0E90045A7
:1025400079E70000000014400000F03F3000000078
:102550000000F0430000E03F2DE9FF4F95B09B469F
:102560008946064600250FE2252877D10024274614
:10257000F84A0121059400E0044316F8013F203B8E
:1025800001FA03F01042F7D130782A2811D06FF009
:102590002F033078A0F13002092A16D8059A44F0AA
:1025A000020402EB820203EB42021044761C059007
:1025B000EFE759F8042B0592002A03DA504244F45D
:1025C0000054059044F00204761C30782E2816D171
:1025D00016F8010F44F004042A280DD06FF02F02E2
:1025E0003078A0F13003092B09D807EB870302EB01
:1025F0004303C718761CF3E759F8047B761C307840
:102600006C280FD006DC4C2817D068280DD06A281B
:1026100014D104E0742810D07A280FD10DE044F4CE
:1026200000140AE044F4801401E044F44014727889
:10263000824202D104F58014761C761C307866281C
:102640000BD013DC582877D009DC002875D045283A
:10265000F6D04628F4D047281AD19DE118E0632827
:1026600035D0642879D0652812D195E1702873D0CF
:1026700008DC6728F1D069286FD06E280DD06F284C
:1026800006D1B5E073282CD0752875D0782874D081
:102690005A46179990476D1C75E1C4F30250022801
:1026A00009D003280DD0D9F8001004280DD00D60F2
:1026B00009F1040967E1D9F80010EA17C1E90052ED
:1026C000F6E7D9F800100D80F2E70D70F0E719F881
:1026D000041B8DF8001000208DF80100EA4601204F
:1026E00003E059F804AB4FF0FF3061074FF00001F1
:1026F00002D40DE008F101018846B9420FDA8045A5
:10270000F8DB1AF808100029F4D108E008F10101FB
:1027100088468142FADB1AF808100029F6D105989C
:102720005B46A0EB080721463846179A00F094FA5A
:10273000284400EB080507E04DE029E10DE01AF818
:10274000010B5A4617999047B8F10108F7D25B463A
:1027500021463846179A13E142E00A220092C4F358
:1027600002524FF0000A022A08D059F804CB032A7B
:102770004FEAEC710AD00DE029E02AE009F10701E7
:1027800021F00702F2E802C1914609E00FFA8CFC41
:102790004FEAEC71042A03D14FFA8CFC4FEAEC713A
:1027A000002907DA0A460021DCF1000C61EB020186
:1027B0002D2202E0220504D52B228DF804200122CF
:1027C00003E0E20701D02022F7E7904659E00A2112
:1027D00002E010220DE010214FF0000A00910BE002
:1027E00010224FF0000A44F004040827009203E08E
:1027F00008224FF0000A0092C4F30252022A05D0C8
:1028000059F804CB0021032A08D009E009F1070197
:1028100021F00702F2E802C1914605E01FFA8CFCA4
:10282000042A01D10CF0FF0C4FF00008220728D534
:10283000702806D0009B83F0100353EA0A0305D0EA
:102840000EE040228DF80420012208E05CEA01023B
:1028500006D030228DF804208DF805000222904623
:10286000009B83F0080353EA0A030AD15CEA0102E1
:1028700001D1620705D530228DF804204FF0010800
:102880007F1E582804D034A003900EA802900DE0BB
:1028900036A0F9E753466046009AFDF7F1FC8446FE
:1028A0000398825C0298401E029002705CEA01006C
:1028B000F0D1029806A9081A00F1200A600702D593
:1028C00024F4803400E00127574502DDA7EB0A001D
:1028D00000E0002000EB0A01009005984144401AF6
:1028E0000590E00306D45B462146179A059800F050
:1028F000B3F90544002706E001A85A46C05D1799C0
:1029000090476D1C7F1C4745F6DBE0030CD55B460A
:102910002146179A059800F09FF9054404E03020FD
:102920005A46179990476D1C0099481E009000293F
:10293000F5DC08E0029802995A460078491C029199
:10294000179990476D1CBAF10001AAF1010AF1DC58
:1029500065E1000009280100303132333435363763
:1029600038396162636465660000000030313233DB
:10297000343536373839414243444546000000007B
:1029800000F058F90544761C307800287FF4ECAD4F
:1029900019B02846BDE8F08F620700D4062709F178
:1029A000070222F0070CFCE80223E14603F000488E
:1029B0005FEA080C02D00FF2702C0DE05FEA045CB5
:1029C00002D50FF2682C07E05FEAC47C02D00FF258
:1029D000602C01E0AFF2700C4FF0FF3823F00043A1
:1029E000CDF850C065280CD006DC452809D0462813
:1029F0001DD047283DD13DE0662818D067287ED1FC
:102A000038E00021112F01DB112000E0781CCDE916
:102A1000000106A90EA8FFF7DDFCDDE90F010E9A03
:102A200003910021009207F1010A04914DE04FF05B
:102A300000400097CDE9011006A90EA8FFF7CAFCD7
:102A4000DDE90F0203920E9B11990022DDF80CA024
:102A50000093049211B9791C00EB010AB7EB0A004C
:102A600004D4C0F1FF3007F1010A0490AAEB07007B
:102A7000019044E0012F00DA01270021112F01DD30
:102A8000112000E03846CDE9000106A90EA8FFF7A5
:102A9000A1FCDDE90F010E9A03910021049100923F
:102AA000BA4621070CD40399514500DA8A46BAF197
:102AB000010F05DD009AAAF10101515C302908D00F
:102AC000B84202DA10F1040F06DA0121CDE9011053
:102AD00015E0AAF10101E9E7002805DC04990144A9
:102AE0000491AAEB000102E0411C514500DD8A4639
:102AF0000499401A401C01904FF0004002902007BA
:102B000004D40198504501DBCDF8048000208DF8F5
:102B10004F0002980DF14F07B0F1004F25D02B2048
:102B20000E9002984FF0020800280CDA4042029002
:102B30002D200E9007E00A210298FDF70FFC30319E
:102B4000029007F8011DB8F10001A8F10108F2DCBC
:102B500002980028EFD1791E0E980870307800F0A6
:102B6000200040F0450007F8020D12A8C01B00F13C
:102B700007081498007800B1012000EB0A010198C1
:102B800001EBE07105984144401A401E0590E003B6
:102B900006D45B462146179A059800F05DF8054477
:102BA0001498007818B15A46179990476D1CE003A5
:102BB00024D55B462146179A059800F04DF8054448
:102BC0001CE00498002807DBDDE90301884203DDEF
:102BD0000098405C179901E0179930205A469047B9
:102BE000049805F10105401C04900198401E0190D5
:102BF00004D12E205A46179990476D1CBAF1000156
:102C0000AAF1010ADDDC05E017F8010B5A46179915
:102C100090476D1CB8F10001A8F10108F4DC5B4697
:102C20002146179A0598ABE62D0000002B00000006
:102C3000200000002DE9F041044600251E461746FD
:102C4000880404D405E039462020B0476D1C641E7A
:102C5000F9D52846BDE8F0812DE9F041044600256C
:102C60001E469046C80301D5302700E0202788047F
:102C700004D505E041463846B0476D1C641EF9D5C1
:102C80002846BDE8F0810A68531C0B60107070473D
:102C900010B500224FF480610648FEF711FB06488C
:102CA000FEF7BAF912210448FDF70EFE0349002091
:102CB000487010BD00000240241300206C0000206A
:102CC000064D4FF0FF342146A86800F0C9F900F026
:102CD00007F8012000F084F9F5E7000090000020DB
:102CE0002DE9F84F4D4D6878B8B100274FF0010A33
:102CF0004FF00509022812D003286ED004287CD199
:102D000005F1080303F1090245494648FDF7EEFDC8
:102D10004E464FF480582C4671E043A07AE0404C78
:102D200041F206063434A4F11C0861882046D8F824
:102D3000102006448B1800F1060B01EB0B000096E7
:102D4000802B1CD8354946461931FDF7CAFA6088F0
:102D5000318A084480B26080802836D18022A11D4B
:102D60000098FDF7BEFA8020A0806780394884F87B
:102D700000A085F80090006800F000FA25E0C1F19D
:102D80008006264932461931FDF7ABFA8022A11D93
:102D90000098FDF7A6FA8020A0802E4884F800A0B5
:102DA00085F80090006800F0E9F96780D8F8100015
:102DB0004546821B1948193081195846FDF791FA8A
:102DC000298A6088891B084460806188002914D0A2
:102DD000BDE8F84F20A0FFF7B9BA2BA01AE00CE02D
:102DE0006068401C606032A0FFF7B0FA6E706068E7
:102DF000404504D3676085F801A0BDE8F88F094815
:102E0000A168FEF75DF80028EAD168780128F4D0BF
:102E10006F702EA0BDE8F84FFFF798BA6C00002045
:102E200068020020241300207468652043414E206E
:102E3000636F6D6D756E69636174696F6E20776124
:102E40007320696E697469616C697A65642E0A0D14
:102E5000000000009C0000207468652064617461BB
:102E600020776173206C6F6164656420746F2074D7
:102E7000656D706275666665722061732073697A2C
:102E8000652025642E0A0D007468652064617461F4
:102E9000207761732070617373656420746F206F95
:102EA00074686572206465766963650A0D000000C8
:102EB00074686520646174612069732070656E6454
:102EC000696E67206E6F772E0A0D000074686520AA
:102ED00064617461207761732073656E7420746F10
:102EE000206F74686572206465766963652E0A0DCB
:102EF0000000000013B54FF6FF7301226946024837
:102F0000FEF77AFF00981CBD90130020FEF7ECF945
:102F1000FFF79CF8FFF700F8FEF7C8FF294828499B
:102F20004FF4E13500240160C0E901540C26C4606F
:102F3000C0E904468461C461FEF777FE08B172B649
:102F4000FEE72048204944380160C0E90154C460CC
:102F5000C0E904468461C461FEF767FE08B172B639
:102F6000FEE7002202211948FEF7AAF9FFF790FEBA
:102F700000F074FE00F044F80121154A084600F004
:102F8000A3F8144C124A0121A0601032084600F048
:102F90009BF8E0604FF0FF31A06800F061F80C4A48
:102FA0000021483A0C4800F015F9094A2060243AFB
:102FB00000210A4800F00EF9606000F035F8FEE7E5
:102FC0000010014090130020004C0040001002400F
:102FD000AC56000890000020C12C0008C141000838
:102FE00010B50146EFF3058010B16FF0050404E061
:102FF000002411B1084601F08BFA204610BD0000F4
:10300000EFF30580002802D06FF0050070470548F7
:10301000016811B14FF0FF307047012101600020BD
:10302000704700000001002010B5EFF30580002874
:1030300002D06FF0050010BD07480168012902D0D9
:103040004FF0FF3010BD054A0021117002210160D0
:1030500001F016FB002010BD000100201FED00E074
:1030600038B50D460024002806D0EFF30581D9B10C
:103070002DB16FF0030422E06FF003041FE0002184
:1030800000916A4601F008FF012802D06FF00204A7
:1030900015E0009898B10B494FF080500860BFF3DD
:1030A0004F8FBFF36F8F0AE0294601F043FF0128DD
:1030B00005D015B16FF0010401E06FF00204204665
:1030C00038BD000004ED00E0F8B50E4614464FF0A0
:1030D0000005EFF3058100294ED100284CD086422F
:1030E0004AD84A1E5CB1A36823B1E168502901D3D4
:1030F000012205E023B9E16811B9002200E00022B5
:10310000B2F1FF3F38D0012809D0012A2AD0314638
:1031100001F0D4FB05467DB354B3216829E0012AB0
:1031200016D003220021012001F007FC0546002DE6
:10313000F1D0002EEFD000231A461946284601F0A0
:103140009FFC0128E7D0284601F08EF90025E2E730
:1031500003200090002211460120A36801F00FFC1B
:103160000546E4E73146A26801F0C6FB0546D2E712
:103170000021284601F064F92846F8BD38B500243E
:1031800000280CD0EFF30581B9B100210091694608
:1031900001F08DFD012805D06FF0020416E06FF0FC
:1031A000030413E0009888B109494FF0805008608B
:1031B000BFF34F8FBFF36F8F08E000231A46194605
:1031C00001F05EFC012801D06FF00204204638BDFA
:1031D00004ED00E02DE9F04385B00B464FF0000709
:1031E0000497EFF3058100294ED100284CD08024AC
:1031F0004FF0180C8946491E52B3166806B1B14605
:10320000956905B1AC46ACF10105382D03D21579AD
:1032100015F0010F03D005B00020BDE8F08355691B
:1032200005B1AC08D2F80880B8F1000F07D0D66815
:103230005C2E04D3166916B10DB1012109E0B8F175
:10324000000F06D1D56825B9156915B9002100E030
:103250000021012901D061B116E091681269019243
:103260000291CDF800C02246494601F09BFF049030
:103270000AE004A90191A2B2CDF800C0494601F0CC
:103280005BFF012800D00497049805B0BDE8F083E7
:103290002DE9F04104460F46134EF5683068001DD5
:1032A00000F0CAFFB4F1FF3F07D137B13068BDE885
:1032B000F041011D0D4801F012B82C443068446003
:1032C000AC4206D23068011DB06BBDE8F04100F0A1
:1032D000EBBF3068011D706B00F0E6FFB06A8442FE
:1032E00000D2B462BDE8F081B000002034190020A3
:1032F00070B5044601F000F81C4DA868401CA86099
:10330000286810B1686938B10CE02C60A868012801
:1033100008D100F09DF905E02868E16AC06A88429A
:1033200000D82C60686A401C68626064E06A2969A1
:10333000884200D928610E4900EB800001EB800033
:10334000211D00F0CCFF00F0F7FF686900280CD0C9
:103350002868E16AC06A884207D206494FF0805067
:103360000860BFF34F8FBFF36F8F70BDB0000020B8
:103370008414002004ED00E038B500F0BDFF0F4CD0
:103380002068B8B90E4800F081FF0E4800F07EFFBB
:103390000B48E0601430206100200B4B009003F1DB
:1033A000500210210A2001F0EAFA206010B107A1B2
:1033B00001F046F8BDE8384000F0BEBFEC00002048
:1033C000381A00204C1A002048190020546D725100
:1033D0000000000070B50D4C6068002815D00C4E40
:1033E00000F08AFFF068C568281D00F025FFA0687E
:1033F000401EA0606068401E606000F09DFF28468F
:1034000000F051F860680028EAD170BDB0000020DB
:10341000201900200B46026C002A0CD0C168114410
:10342000C160D0F808C0614501D30168C160C168BE
:103430001846FCF756BF70472DE9F0410446164682
:103440000027A56B226C002A10D0C6B1E068FCF7FB
:1034500048FFE168206C091AE1602268914202D2BB
:10346000A168081AE060022E16D017E02068A8B9FB
:10347000A06801F041FF07460020A0600EE06068F0
:10348000FCF72FFF216C606808446060A1688842E7
:1034900004D32068606001E005B16D1E681CA06364
:1034A0003846BDE8F08110B5044694F8591000295B
:1034B0000BD0012911D0022914D0502080F311889B
:1034C000BFF34F8FBFF36F8FFEE7206B00F04AFF13
:1034D0002046BDE8104000F045BF2046BDE8104042
:1034E00000F040BF10BD416A002904D0006B0068A5
:1034F000C0F1380070470020704700000749CA68D3
:103500001168002904D00021016019B10020704722
:103510000121F9E7D068006870470000EC00002046
:103520004FF47051104810F0070F06D0C01D20F066
:1035300007000D49411AC1F570510C4A1060002373
:1035400053600144083921F00701183A11604B60BB
:103550000B600B1A436001604068906050604FF050
:103560000040506170470000182100201C0100201D
:10357000074E4FF08054074DFFF72CFF30680128AD
:10358000FAD92C60BFF34F8FBFF36F8FF4E70000C1
:103590008414002004ED00E070B51D46049C002951
:1035A00009D02260E06321640121204601F020FA65
:1035B00084F84C5070BD2460F4E72DE9F05F82463A
:1035C0000B9F0A9D0C9C0E4690469B464FEA880135
:1035D000A522206BFCF797FE206BA8F1010100EB00
:1035E000810020F007094FF0000866B10020221882
:1035F000315C82F83410315C11B1401C1028F6D3D4
:1036000084F8438001E084F83480382D00D33725D6
:10361000E562E564C4F85080201D00F042FE04F12C
:10362000180000F03EFE2461C5F13800A06164621C
:10363000C4F8548084F858805A465146484600F0F1
:10364000D1FA2060002F00D03C60BDE8F09F000060
:1036500070B500240F4D04EB840005EB800000F0F2
:1036600015FE641C382CF6D30B4800F00FFE0B48F7
:1036700000F00CFE0A4800F009FE0A4800F006FEC1
:10368000094800F003FE094803494163143181638E
:1036900070BD000084140020E4180020F8180020F9
:1036A0000C1900202019002034190020B00000203F
:1036B00010B4144900E011460A688242FBD34B68FB
:1036C00003EB010C844503D1406818444860084668
:1036D0000C68D0F804C00CEB0003A3420CD10A4BD9
:1036E0001B689A4206D05268624442600A681268B7
:1036F000026002E0036000E00260814200D00860E6
:1037000010BC70471C0100200401002010B50024EB
:1037100041600061DFF838C091420BD8D11A82694C
:10372000914201D3012410E0011DDCF8100000F0EB
:10373000BBFD0AE09A4203D2994201D3012404E07E
:10374000011DDCF80C0000F0AFFD204610BD0000AC
:10375000EC00002010B5044600F0CEFDA06B20B1B7
:10376000002400F0E9FD204610BD0124F9E710B562
:10377000044600F0C1FDA06BE16B884201D1012439
:1037800000E0002400F0D8FD204610BDF8B5054645
:103790000E461748C068C068C468201D00F04CFD84
:1037A00094F8280010F0040F18D0A0692B46411996
:1037B00032462046FFF7AAFFA0B10020034601468B
:1037C00000902A46204601F0EDFE58B9502080F3C3
:1037D0001188BFF34F8FBFF36F8FFEE720F001001A
:1037E00084F82800216A01B02046BDE8F04008476F
:1037F000EC00002030B587B0414D002202A92868B6
:1038000001F0A6FA002875D00298002803DA039A7E
:103810000599049890470298002864DB049C60692D
:1038200010B1201D00F008FD01A800F0B3F8024619
:1038300002980A2857D2DFE800F00505052F364D1B
:1038400005052F3694F8280040F0010084F8280080
:103850000398A169034601442046FFF757FF00285B
:1038600041D0216A2046884794F8280010F0040FC0
:1038700039D0002000900398A1690023421819460E
:10388000204601F08FFE70BB502080F31188BFF3FB
:103890004F8FBFF36F8FFEE794F8280020F00100F0
:1038A00084F828001FE094F8280040F0010084F814
:1038B00028000398A06128B1811813462046FFF71D
:1038C00025FF10E0502080F31188BFF34F8FBFF326
:1038D0006F8FFEE794F8280010F0020F0CD020F054
:1038E000010084F82800002202A9286801F030FABB
:1038F000002889D107B030BD204600F033FDF2E743
:10390000EC000020F8B505460C4600F001FF6846C3
:1039100000F040F80646009810B101F0A9FDF8BD8E
:1039200044B9B54206D801F0A3FD31462846FFF759
:103930002DFFF8BD0C481CB10169096891B1002444
:10394000A91B2246006800F0BDFD01F091FD002892
:10395000EFD106494FF080500860BFF34F8FBFF39F
:103960006F8FF8BD0124EBE7EC00002004ED00E0D0
:103970000749486B0068002805D0486BC068C068DC
:103980004068886270474FF0FF30886270470000DF
:10399000B000002070B5044601F042FC0546074E19
:1039A000B068854204D200F00BF80120206001E0ED
:1039B00000202060B560284670BD0000EC000020AB
:1039C000F8B51C4EF0680068002826D00027F06883
:1039D000C0680568C468201D00F02EFC216A2046DE
:1039E000884794F8280010F0040F12D0A0692844EA
:1039F000A84206D960602461211DF06800F054FCE3
:103A000007E000232A4619462046009701F0CAFD28
:103A100040B1F06800680028D9D1F0683169F160E0
:103A20003061F8BD502080F31188BFF34F8FBFF392
:103A30006F8FFEE7EC0000200A484068B0F1FF3FBE
:103A400007D0502080F31188BFF34F8FBFF36F8FE3
:103A5000FEE7502080F31188BFF34F8FBFF36F8FC5
:103A6000FEE700002401002082B001A8FFF746FD18
:103A70000199FFF747FFFFF7BDFEF6E770B5044673
:103A800000F03AFC94F94550002D0CDD606A50B10D
:103A900004F1240001F0B0FC08B100F069FD681EDB
:103AA00045B2002DF2DC4FF0FF3684F8456000F09F
:103AB00043FC00F021FC94F94450002D0CDD2069FA
:103AC00050B104F1100001F097FC08B100F050FD76
:103AD000681E45B2002DF2DC84F84460BDE87040F9
:103AE00000F02ABC2DE9F0410546002600F010FE4A
:103AF000344F386808B9FFF713FD7869054251D192
:103B00009DB1083515F0070F0FD005F00700C0F183
:103B10000800054415F0070F07D0502080F31188E6
:103B2000BFF34F8FBFF36F8FFEE7002D3AD0786859
:103B3000854237D824490846046801E021460446F6
:103B40006068A84202D220680028F7D13868844211
:103B500028D0086800F10806206808606068411BEA
:103B600010290FD9601910F0070F07D0502080F3EB
:103B70001188BFF34F8FBFF36F8FFEE74160656021
:103B8000FFF796FD61687868401A7860BA689042DD
:103B900000D2B86078690843606000202060F8684F
:103BA000401CF86001F064FC16F0070F07D05020AD
:103BB00080F31188BFF34F8FBFF36F8FFEE730465E
:103BC000BDE8F081040100201C01002004490868C0
:103BD000002803D00868026D521C0265086870470F
:103BE000B0000020001F4FF080730360001F21F021
:103BF00001010160001F0549016014380260001FC7
:103C00006FF002010160203870470000393A000867
:103C100010B532210C48FCF77DFB0C48FCF797FBF4
:103C200082B24FF47A7309490948FEF7E5F840F289
:103C3000DC53322204490648FEF77EF8BDE8104006
:103C4000014904A0FEF782BB3402002034010020A9
:103C50004C130020252E3530730A0D0010B5094C89
:103C6000012204212046FDF72BFB012208212046DA
:103C7000FDF726FB43F69820FDF702FA02490220E1
:103C8000087010BD000802406C0000202DE9F041D2
:103C900006460D46002003E0315C30313154401CB3
:103CA000A842F9DB31A13548FEF760FBFFF7B0FF12
:103CB0003348FCF74CFB024631493048FEF756FBCF
:103CC0002F48FCF744FB07462D481330FCF73FFB19
:103CD0002A4C2B490246E0191331FEF747FB2848CE
:103CE0001330FCF734FB074425483030FCF72FFB3A
:103CF00023490246E0193031FEF738FB20483030C6
:103D0000FCF725FB07441E481738FCF720FB1C492D
:103D10000246E0191739FEF729FB19481738FCF756
:103D200016FB0744E0192A463146FCF7DAFA144834
:103D30003D441B38FCF70BFB1149024660191B3947
:103D4000FEF714FB0E481B38FCF701FBFFF760FF82
:103D50000CA12046FEF70AFBFFF75AFF0EA12046F2
:103D6000FEF704FBBDE8F041FFF752BF41542B487A
:103D7000545450494E49540D0A00000034010020AB
:103D80001F00002041542B48545450414354494F84
:103D90004E3D300D0A00000041542B4854545054FD
:103DA00045524D0D0A0000001CB5FFF731FF404A97
:103DB00040A14748FEF7DAFAFFF72AFF45A1444839
:103DC000FEF7D4FAFFF724FF4FF4FA642046FDF71C
:103DD00057F944A13E48FEF7C9FAFFF719FF2046FC
:103DE000FDF74EF9324940F25B73491E01F11D00A7
:103DF000CDE90001A0F1120242A13548FEF7B6FA62
:103E0000FFF706FF2046FDF73BF929483130FCF764
:103E10009EFA024645A12E48FEF7A8FAFFF7F8FEE3
:103E2000234A48A131322A48FEF7A0FAFFF7F0FEF4
:103E30002046FDF725F94548FCF789FA024644A1DA
:103E40002348FEF793FAFFF7E3FE32214648FCF7DA
:103E500061FA3E48FCF77BFA82B2641023463B4984
:103E60004248FDF7C9FF234632223F493F48FDF74C
:103E700063FF3D493EA0FEF769FA3FA11448FEF7F3
:103E800075FAFFF7C5FE42A11148FEF76FFAFFF77A
:103E9000BFFE45A10E48FEF769FAFFF7B9FE46A13D
:103EA0000B48FEF763FABDE81C40FFF7B1BE000007
:103EB0001956000841542B4347534F434B434F4E31
:103EC000543D312C224950222C222573220D0A0008
:103ED0003401002041542B434D515454535441520A
:103EE000540D0A0041542B434D5154544143435106
:103EF0003D302C22656C656D656E747A222C302CF9
:103F00003400000041542B434D515454434F4E4E06
:103F10004543543D302C2225733A2564222C3930F8
:103F20002C312C25732C25730D0A000041542B4392
:103F30004D515454544F5049433D302C25640D0A83
:103F40000000000025730D0A00000000580000204A
:103F500041542B434D5154545041594C4F41443DD1
:103F6000302C25640D0A0000340200204C13002080
:103F7000252E3530730A0D0041542B434D515454B6
:103F80005055423D302C312C36300D0A00000000D7
:103F900041542B434D515454444953433D302C31EB
:103FA00032300D0A0000000041542B434D5154544F
:103FB00052454C3D300D0A0041542B434D51545451
:103FC00053544F500D0A000070B50C4605460021B1
:103FD00003E0685C30306854491CA142F9DB13A14E
:103FE0001548FEF7C3F9FFF713FE4FF47A70FDF79B
:103FF00047F8124A12A11048FEF7B8F9FFF708FE79
:104000006420FDF73DF8224629460B48FCF769F984
:1040100009481A2220440EA1FEF7A8F9FFF7F8FD7F
:10402000BDE870400BA0FEF791B9000041542B434E
:104030004D47463D310D0A0034010020100000209C
:1040400041542B434D47533D222573220D0A000056
:104050002563000074686520646174612077617372
:104060002073656E7420746F2070686F6E652074A5
:1040700068726F7567682053494D373630302E0AA5
:104080000D0000002DE9F0473CA13E48FEF76EF917
:1040900001273D4D4FF47A764FF00008DFF8EC90A1
:1040A0003B4C2CE02868401C28600A2801D9277066
:1040B00028E03448FCF74BF982B2334631493548A1
:1040C000FDF79AFE3346322233493248FDF734FE7B
:1040D00032A13148FCF729F950B1002201214846AC
:1040E000FDF7EEF884F800802B492DA0FEF72EF99D
:1040F00032212948FCF70EF93046FCF7C1FF207841
:104100000028CFD128A11F48FEF730F903202070E6
:104110004FF4FA7AC5F8008028680A2802D9277077
:10412000BDE8F087401C28601648FCF710F982B201
:10413000334614491748FDF75FFE334632221649CD
:104140001448FDF7F9FD1BA11348FCF7EEF848B140
:1041500001214846FDF7ACF884F800800E4910A014
:10416000FEF7F4F832210C48FCF7D4F85046FCF77F
:1041700087FF20780028CFD1D2E7000041540D0AF4
:104180000000000034010020000000200010024068
:104190006C0000204C130020340200204F4B000024
:1041A000252E3530730A0D0041542B4347524547A5
:1041B0003F0D0A002B43475245473A20302C31002F
:1041C000064D4FF0FF342146E868FEF749FF00F046
:1041D00007F80120FEF704FFF5E70000900000203B
:1041E0000D480278022A0CD00C4941F2060008441E
:1041F0008988042A07D0052A07D0062A0AD1FFF7A2
:10420000E3BEFFF73FBFFFF741BD034800210C307D
:10421000FFF7CABD704700006C0000209C02002020
:1042200003490520087003480068FEF7A7BF000097
:104230006C0000209C0000200169436882689A603D
:10424000836842685A604A68824201D182684A6043
:10425000002202610868401E08600868704700007C
:10426000034B036003F15C0008608020106070471E
:10427000601A0020044B036003F15C0008604FF4F7
:104280008070106070470000BC1C002000F1080125
:1042900041604FF0FF328260C16001610021016026
:1042A000704700210161704710B4D1F800C0BCF123
:1042B000FF3F02D000F1080202E0026904E01A4662
:1042C00053681C686445FAD953684B6099608A60EA
:1042D000516008610168491C016010BC7047426868
:1042E0004A6093688B6093685960916008610168C7
:1042F000491C016070470000502080F31188BFF313
:104300004F8FBFF36F8F0A494868401C48600128EF
:104310000CD10848006810F0FF0F07D0502080F340
:104320001188BFF34F8FBFF36F8FFEE77047000018
:104330002401002004ED00E009494868002806D067
:10434000401E4860002801D180F31188704750203A
:1043500080F31188BFF34F8FBFF36F8FFEE700002C
:104360002401002070B500282AD0A0F10804154DC2
:1043700060686969084207D1502080F31188BFF353
:104380004F8FBFF36F8FFEE722683AB1502080F362
:104390001188BFF34F8FBFF36F8FFEE788436060D4
:1043A00000F0B6F960686968084468602046FFF765
:1043B0007FF92869401C2861BDE8704001F058B8B9
:1043C00070BD0000040100204FF0E02000210161D9
:1043D000816105494FF47A720968B1FBF2F1491E17
:1043E0004161072101617047AC00002010B5FBF767
:1043F00031FF114910280ED300F1E02090F8F003AE
:104400000A78904207D2502080F31188BFF34F8F73
:10441000BFF36F8FFEE709480068896800F4E06029
:10442000884207D9502080F31188BFF34F8FBFF324
:104430006F8FFEE710BD0000240100200CED00E0AE
:104440000022084B53F832C0BCF1000F03D0521CBD
:10445000082AF7D3704743F8321003EBC2014860D3
:10446000704700004414002010B50446002C0BD007
:10447000204600F013F894F8460000280CD120469E
:10448000BDE81040FFF76EBF502080F31188BFF3E6
:104490004F8FBFF36F8FFEE710BD00000021084A69
:1044A00002EBC1035B68834206D1002042F8310071
:1044B00002EBC10148607047491C0829F0D37047DE
:1044C0004414002070B504460D461646FFF714FF4D
:1044D00094F94400B0F1FF3F4FF0000001D184F89F
:1044E000440094F94510B1F1FF3F01D184F8450033
:1044F000FFF722FFA06B28B93246294604F12400B9
:1045000000F056F82046BDE87040FFF7B7BA00004B
:1045100010B502460020002A12D00F48006B38B1B7
:10452000502080F31188BFF34F8FBFF36F8FFEE7EA
:1045300000F0EEF800211046FEF7AAFE00F098FF0A
:10454000002807D105494FF080500860BFF34F8F16
:10455000BFF36F8F10BD0000B000002004ED00E03D
:1045600002490A6A0260C96841607047B0000020D1
:1045700001490120C8617047B000002010B50C4609
:1045800000280BD0094A126802F11801FFF78CFECF
:104590002046BDE810400121FEF77ABE502080F38E
:1045A0001188BFF34F8FBFF36F8FFEE7B00000207D
:1045B00070B50D46144600280DD00B490968183116
:1045C000FFF78DFE0CB14FF0FF3521462846BDE8C0
:1045D0007040FEF75DBE502080F31188BFF34F8F0F
:1045E000BFF36F8FFEE70000B000002070B50446F7
:1045F00000283FD0226DA2B1E06C884200D3014672
:10460000E06A884236D0012A34D11B4D2A68944290
:104610000FD1502080F31188BFF34F8FBFF36F8FFE
:10462000FEE7502080F31188BFF34F8FBFF36F8FE9
:10463000FEE7E162A26912F0004F02D1C1F1380138
:10464000A1610E4E00EB8000616906EB80008142A3
:1046500010D1201DFFF7F0FDE06A2969884200D9DA
:10466000286100EB800006EB8000211DBDE8704052
:10467000FFF735BE70BD0000B0000020841400209C
:1046800030B587B000250695059504AA05A906A8AA
:10469000FFF7E6FD06980599019102900023009529
:1046A00017A11948049A00F07DFD184CE06208B18A
:1046B000012000E00020012801D100F03FFF012887
:1046C0000AD0B0F1FF3F19D1502080F31188BFF319
:1046D0004F8FBFF36F8FFEE7502080F31188BFF339
:1046E0004F8FBFF36F8F4FF0FF30A06201206061EA
:1046F000E56007B0BDE8304000F048B807B030BD15
:1047000049444C450000000071350008B00000200D
:104710000248016B491C016370470000B000002093
:10472000184B186B002802D00120D8617047002078
:10473000D8611869144900EB800251F822203AB977
:10474000C0B1401E00EB800251F82220002AF7D0B1
:1047500000EB800201EB82014A6852684A6001F175
:10476000080C624501D152684A604968C9681960FD
:1047700018617047502080F31188BFF34F8FBFF34B
:104780006F8FFEE7B00000208414002010B582B0C7
:1047900038480168384A914207D1502080F3118887
:1047A000BFF34F8FBFF36F8FFEE700683349884236
:1047B00007D1502080F31188BFF34F8FBFF36F8F65
:1047C000FEE72F4908780190FF20087008780090D4
:1047D0009DF800009DF8002000F0F000904207D006
:1047E000502080F31188BFF34F8FBFF36F8FFEE728
:1047F0009DF80000234C00F0500020700720A060BE
:104800009DF8000010F0800F0BD0A068401EA06043
:104810009DF80000400000909DF8000010F0800F0F
:10482000F3D1A068032807D0502080F31188BFF38C
:104830004F8FBFF36F8FFEE74FF44070A060019879
:1048400008701148016841F470010160016841F08D
:1048500070410160FFF7B8FD00206060FBF7C2FC0B
:104860000A48016841F040410160FBF7A7FC02B033
:10487000002010BD00ED00E071C20F4170C20F4179
:1048800000E400E02401002020ED00E034EF00E02F
:1048900010B5502080F31188BFF34F8FBFF36F8F97
:1048A00000F0C4FC18B104494FF0805008600020AB
:1048B00080F3118810BD000004ED00E010B50C4637
:1048C000002809D084420FD9502080F31188BFF30B
:1048D0004F8FBFF36F8FFEE7502080F31188BFF337
:1048E0004F8FBFF36F8FFEE70222002100F025F803
:1048F000002800D0846310BD38B50C46002809D0CC
:1049000084420FD9502080F31188BFF34F8FBFF33B
:104910006F8FFEE7502080F31188BFF34F8FBFF3F6
:104920006F8FFEE70221134600220091114600F02E
:1049300026F8002800D0846338BDF8B505460E4639
:104940001746002D13D005FB06F05030FFF7CAF8CC
:10495000044654B104F15002002084F846003B465E
:10496000314628460094FEF717FE2046F8BD502039
:1049700080F31188BFF34F8FBFF36F8FFEE738B519
:10498000049D002804D05BB102B189B1C2B120E01E
:10499000502080F31188BFF34F8FBFF36F8FFEE776
:1049A000502080F31188BFF34F8FBFF36F8FFEE766
:1049B000502080F31188BFF34F8FBFF36F8FFEE756
:1049C00039B1502080F31188BFF34F8FBFF36F8F41
:1049D000FEE74FF0500CCDF800C01C46012384F8D0
:1049E00046302B460094FEF7D7FD204638BD000028
:1049F00070B504460D46002C25D0FFF77DFC226CD7
:104A0000E16B206801FB0200A0600020A063206829
:104A10006060E16B226C2068491E01FB0200E060CF
:104A20004FF0FF3084F8440084F845009DB104F154
:104A30001000FFF72BFC04F12400FFF727FCFFF721
:104A40007BFC012070BD502080F31188BFF34F8F95
:104A5000BFF36F8FFEE720690028F0D004F110004B
:104A600000F0CAFC0028EAD004494FF080500860EA
:104A7000BFF34F8FBFF36F8FE1E7000004ED00E05D
:104A80002DE9FF4782B004468A461F460025002CC8
:104A900003D0BAF1000F08D011E0502080F3118844
:104AA000BFF34F8FBFF36F8FFEE7206C38B15020FC
:104AB00080F31188BFF34F8FBFF36F8FFEE7022F94
:104AC0000AD1E06B012807D0502080F31188BFF392
:104AD0004F8FBFF36F8FFEE700F094FB48B9049847
:104AE00038B1502080F31188BFF34F8FBFF36F8F21
:104AF000FEE700264FF08058DFF8F090FFF7FCFB50
:104B0000A06BE16B884205D3022F03D0049808B351
:104B100035B329E03A4651462046FEF78DFC616ADE
:104B200059B104F1240000F067FC68B1C9F80080B5
:104B3000BFF34F8FBFF36F8F06E028B1C9F8008035
:104B4000BFF34F8FBFF36F8FFFF7F6FB06B0012067
:104B5000BDE8F087FFF7F0FB06B00020BDE8F08766
:104B60006846FFF7FDFC0125FFF7E6FBFFF7D0FDE8
:104B7000FFF7C2FB94F94400B0F1FF3F01D184F884
:104B8000446094F94500B0F1FF3F01D184F84560DD
:104B9000FFF7D2FB04A9684600F08EFA40B1204628
:104BA000FEF76CFF00F064FC06B00020BDE8F08763
:104BB0002046FEF7DCFD90B104F110000499FFF7E8
:104BC000DDFC2046FEF75AFF00F052FC002895D18C
:104BD000C9F80080BFF34F8FBFF36F8F8EE7204679
:104BE000FEF74CFF00F044FC88E7000004ED00E015
:104BF0002DE9F0470446894617461E46002C03D08F
:104C0000B9F1000F08D011E0502080F31188BFF3F4
:104C10004F8FBFF36F8FFEE7206C38B1502080F3C9
:104C20001188BFF34F8FBFF36F8FFEE7022E0AD1BB
:104C3000E06B012807D0502080F31188BFF34F8F1D
:104C4000BFF36F8FFEE7FFF7D1FB5020EFF3118822
:104C500080F31188BFF34F8FBFF36F8FA06BE16BB1
:104C6000884206D3022E04D0002088F31188BDE8C4
:104C7000F08794F94550A06B324649462046FEF72E
:104C8000DBFBB5F1FF3F04D0681C84F84500012030
:104C9000EBE7606A0028FAD004F1240000F0ACFBD6
:104CA0000028F4D0002FF2D001203860EFE770B573
:104CB00004460D46002C09D0206C78B1502080F3BA
:104CC0001188BFF34F8FBFF36F8FFEE7502080F343
:104CD0001188BFF34F8FBFF36F8FFEE7206848B98D
:104CE000A06838B1502080F31188BFF34F8FBFF315
:104CF0006F8FFEE7FFF77AFB5020EFF3118680F30A
:104D00001188BFF34F8FBFF36F8FA06BE16B8142B0
:104D100019D994F94520401CA063B2F1FF3F04D09B
:104D2000501C84F8450001200EE0606A0028FAD08B
:104D300004F1240000F060FB0028F4D0002DF2D034
:104D400001202860EFE7002086F3118870BD000085
:104D50002DE9F74783B004468A460025002C03D08E
:104D6000BAF1000F08D011E0502080F31188BFF392
:104D70004F8FBFF36F8FFEE7206C38B1502080F368
:104D80001188BFF34F8FBFF36F8FFEE700F03AFA41
:104D900048B9059838B1502080F31188BFF34F8F80
:104DA000BFF36F8FFEE700274FF08058DFF8E490E5
:104DB000FFF7A2FAA66BC6B151462046FEF72AFBC2
:104DC000701EA063206950B104F1100000F014FBC4
:104DD00028B1C9F80080BFF34F8FBFF36F8FFFF783
:104DE000ABFA06B00120BDE8F087059808B135B1EF
:104DF00009E0FFF7A1FA06B00020BDE8F087684699
:104E0000FFF7AEFB0125FFF797FAFFF781FCFFF7ED
:104E100073FA94F94400B0F1FF3F01D184F8447073
:104E200094F94500B0F1FF3F01D184F84570FFF7D8
:104E300083FA05A9684600F03FF968B12046FEF7FD
:104E40001DFE00F015FB2046FEF784FC0028AFD0C5
:104E500006B00020BDE8F0872046FEF77BFC90B14D
:104E600004F124000599FFF789FB2046FEF706FEB2
:104E700000F0FEFA00289BD1C9F80080BFF34F8FE5
:104E8000BFF36F8F94E72046FEF7F8FD00F0F0FACD
:104E90008EE7000004ED00E02DE9F0470446894666
:104EA0001746002C03D0B9F1000F08D011E05020B4
:104EB00080F31188BFF34F8FBFF36F8FFEE7206C35
:104EC00038B1502080F31188BFF34F8FBFF36F8F3D
:104ED000FEE7FFF78BFA5020EFF3118880F311887B
:104EE000BFF34F8FBFF36F8FA56BEDB194F94460A3
:104EF00049462046FEF78EFA681EA063B6F1FF3FD2
:104F000004D0701C84F8440001200EE020690028C1
:104F1000FAD004F1100000F06FFA0028F4D0002F4E
:104F2000F2D001203860EFE7002088F31188BDE857
:104F3000F08700002DE9F34383B0044600250026E6
:104F4000002C09D0206C78B1502080F31188BFF379
:104F50004F8FBFF36F8FFEE7502080F31188BFF3B0
:104F60004F8FBFF36F8FFEE700F04CF948B90498FC
:104F700038B1502080F31188BFF34F8FBFF36F8F8C
:104F8000FEE700274FF08058DFF82891FFF7B4F9CB
:104F9000A06BC8B1401EA063206810B9FEF716FED2
:104FA000A060206950B104F1100000F025FA28B18A
:104FB000C9F80080BFF34F8FBFF36F8FFFF7BCF9C5
:104FC00005B00120BDE8F083049808B17DB112E07E
:104FD0003EB1502080F31188BFF34F8FBFF36F8F26
:104FE000FEE7FFF7A9F905B00020BDE8F0836846A9
:104FF000FFF7B6FA0125FFF79FF9FFF789FBFFF7E7
:105000007BF994F94400B0F1FF3F01D184F844707A
:1050100094F94500B0F1FF3F01D184F84570FFF7E6
:105020008BF904A9684600F047F8D0B12046FEF796
:1050300025FD00F01DFA2046FEF78CFB0028A5D0C8
:105040005EB1FFF759F92046FEF74DFAA268014616
:105050001046FFF7CBFAFFF76FF905B00020BDE867
:10506000F0832046FEF776FBE8B1206838B9FFF7F9
:1050700043F9A06800F080F90646FFF75DF904F1F6
:1050800024000499FFF77AFA2046FEF7F7FC00F0B7
:10509000EFF900287FF47AAFC9F80080BFF34F8F93
:1050A000BFF36F8F72E72046FEF7E8FC00F0E0F9EF
:1050B0006CE7000004ED00E070B505460C46002DDD
:1050C00015D0E4B1FFF718F9DFF868C0DCF80C0080
:1050D0006B68C11A2268B2F1FF3F18D02E68DCF865
:1050E00020C0664515D0834213D801241DE050200E
:1050F00080F31188BFF34F8FBFF36F8FFEE750200F
:1051000080F31188BFF34F8FBFF36F8FFEE700244A
:105110000BE08A4206D9501A20602846FFF720FA91
:10512000002402E0002020600124FFF705F920465A
:1051300070BD0000B00000202DE9F04F85B0814621
:105140000F9F0E9E8A4690469B464FEA8800FEF7C8
:10515000C9FC054628000AD05C20FEF7C3FC0446C3
:105160000CB1256304E02846FFF7FCF800E00024BA
:105170009CB1002084F8590003905B46424651469A
:105180000197009602944846FEF717FA2046FEF76C
:10519000AFF805B00120BDE8F08F05B04FF0FF304B
:1051A000BDE8F08F70B586B00646DDF828C00C9CCF
:1051B0000B98002816D0ECB15C25049520630220E2
:1051C00084F85900002005AD0390CDF800C001958A
:1051D00002943046FEF7F1F92046FEF789F805986B
:1051E00006B070BD502080F31188BFF34F8FBFF31E
:1051F0006F8FFEE7502080F31188BFF34F8FBFF30E
:105200006F8FFEE705484169002903D0006B18B194
:10521000002070470120704702207047B000002036
:105220000148C06870470000B00000202DE9F0413F
:1052300000262F4F386B002805D0B869401CB86194
:105240003046BDE8F081F868451CFD609DB9786B7B
:10525000006838B1502080F31188BFF34F8FBFF33F
:105260006F8FFEE7786BB96B7963B863386A401C5F
:105270003862FEF77DFBB86ADFF8788085420DD38F
:10528000786B006838B1786BC068C4686068854224
:1052900012D2B86202E04FF0FF30B8623868C06ADC
:1052A00000EB800058F82000012800D90126F86999
:1052B0000028C5D00126C3E7201DFEF7BDFFA06A68
:1052C00018B104F11800FEF7B7FFE16A38698142AE
:1052D00000D9396101EB810008EB8000211DFEF748
:1052E000FEFFE06A3968C96A8842C9D30126C7E768
:1052F000B00000208414002070B50446002100286E
:1053000033D01B4D2868844207D0502080F3118889
:10531000BFF34F8FBFF36F8FFEE7206D38B1401E94
:105320002065E36CE26A9A421FD040B11DE0502034
:1053300080F31188BFF34F8FBFF36F8FFEE7201DFF
:10534000FEF77AFFE06CE062C0F13800A061E06A2D
:105350002969884200D92861064900EB800001EBE9
:105360008000211DFEF7BBFF0121084670BD000033
:10537000B00000208414002070B504460020002CEA
:105380002DD01B4DE16A2A68D26A914228D2A069C9
:1053900010F0004F04D12868C06AC0F13800A06145
:1053A000E06A144E00EB8000616906EB80008142E8
:1053B00011D1201DFEF740FF2868C06AE06229690C
:1053C000884200D9286100EB800006EB8000211D97
:1053D000FEF785FF02E02868C06AE062012070BD28
:1053E000E16C2A68D26A9142F9D2012070BD0000B6
:1053F000B00000208414002070B5C068C468002C80
:1054000014D004F11800FEF717FF164D286BA8B151
:1054100004F118011448FEF762FFE06A2968C96ABE
:1054200088421CD901200121E96170BD502080F320
:105430001188BFF34F8FBFF36F8FFEE7201DFEF77C
:10544000FBFEE06A2969884200D92861074900EB20
:10545000800001EB8000211DFEF741FFDDE7002009
:1054600070BD0000B00000200C1900208414002042
:105470002DE9F047002400272D4D286B002807D088
:10548000FEF73AFF286B401E2863286B40B149E0C5
:10549000502080F31188BFF34F8FBFF36F8FFEE76B
:1054A000A86800283ED0234E30684FF0010800B3B2
:1054B000A6F59169F068C46804F11800FEF7BCFE17
:1054C000201DFEF7B9FEE06A2969884200D92861EB
:1054D00000EB800009EB8000211DFEF700FFE06A71
:1054E0002968C96A884201D3C5F81C803068002841
:1054F000E0D10CB1FEF73CFAAC694CB1FFF796FE77
:1055000008B1C5F81C80641E002CF7D10020A861EA
:10551000E86938B10127084938070860BFF34F8FA1
:10552000BFF36F8FFEF708FF3846BDE8F087000035
:10553000B00000200C19002004ED00E030B587B069
:105540000024FDF719FF134D2868B0B10020069024
:10555000059004AA05A906A8FEF78CFE05990698F1
:10556000022200920191029000230BA10C48049AA0
:10557000FFF718FE686000B1012414B107B020469F
:1055800030BD502080F31188BFF34F8FBFF36F8F72
:10559000FEE70000EC000020546D7220537663009B
:1055A000693A0008F0B585B084460A9D16461F4644
:1055B0000022BCF1000F14D0164C206800B30091FB
:1055C0000196CDF808C006291BDAFFF71BFE02285A
:1055D0000FD000231A4669462068FFF751FA0246A9
:1055E00015E0502080F31188BFF34F8FBFF36F8F0A
:1055F000FEE700232A4669462068FFF741FA024683
:1056000005E000233A466946FFF7F2FA024605B084
:105610001046F0BDEC00002000636D6E65742E63D3
:105620006F6D007463703A2F2F6D652E7061686125
:105630006D2E6169005361654C617965585534334D
:105640004B6C61734E7030644E0076312F6465761A
:10565000696365732F6D652F74656C656D65747214
:10566000790000001457000800000000000000004E
:105670000000000000000000000200001800000010
:1056800000000000000000000457000800000000B7
:105690000000000000000000000000000002000008
:1056A000180000000000000000000000F456000890
:1056B000000000000000000000000000E4560008A8
:1056C00000000000000000000000000000000000DA
:1056D00000000000010203040607080900000000A2
:1056E0000102030473696D373630305F73656D6195
:1056F0000000000063616E5F636F6D5F73656D61D5
:105700000000000073696D373630305F7461736B71
:105710000000000063616E5F636F6D5F7461736BA7
:105720000000000044570008000000203401000081
:105730003A080008BC57000834010020E45F00006C
:10574000C4230008512C220D0A00266669656C648A
:105750003D0059112B383631333635303030333443
:1057600035350041542B48545450504152413D224C
:1057700055524C222C002268747470733A2F2F619A
:1057800070692E7878782E636F6D2F7570646174F0
:10579000653F006170695F6B65793D007B74656D85
:1057A00070657261747572653A34337D02283042D7
:0C57B000019210037A24F495AAAAAAAA78
:040000050800018965
:00000001FF
