:020000040800F2
:10000000087000205D0200085F230008DB21000863
:100010005D23000875080008DB27000800000000C9
:100020000000000000000000000000009D0100082A
:10003000A908000800000000F90100086123000879
:1000400077020008770200087702000877020008AC
:10005000770200087702000877020008770200089C
:1000600077020008AD080008770200087702000850
:10007000770200087702000877020008770200087C
:100080007702000877020008770200089D08000840
:100090007908000885080008910800087702000820
:1000A000770200087702000877020008770200084C
:1000B000770200087702000877020008770200083C
:1000C000770200087702000877020008770200082C
:1000D000770200087702000877020008770200081C
:1000E000770200087702000877020008770200080C
:1000F00077020008770200087702000877020008FC
:1001000077020008770200087702000877020008EB
:10011000F52400087702000821240008770200086F
:1001200077020008770200087702000877020008CB
:1001300077020008770200087702000877020008BB
:1001400077020008770200087702000877020008AB
:10015000770200087702000877020008770200089B
:10016000770200087702000877020008770200088B
:1001700077020008770200087702000800000000FC
:100180007702000877020008DFF80CD000F0D4FAFC
:1001900000480047F5330008087000202C4B196810
:1001A0000868B0E8F04F80F30988BFF36F8F4FF015
:1001B000000080F3118870470000000008480068C4
:1001C000006880F308884FF0000080F3148862B65E
:1001D00061B6BFF34F8FBFF36F8F00DF00BF00BF6B
:1001E00008ED00E0DFF80C00016841F470010160E7
:1001F000704700BF88ED00E0EFF30980BFF36F8F19
:10020000134B1A681EF0100F08BF20ED108A20E96A
:10021000F04F106009B44FF0500080F31188BFF325
:100220004F8FBFF36F8F04F075FB4FF0000080F32A
:10023000118809BC19680868B0E8F04F1EF0100F6B
:1002400008BFB0EC108A80F30988BFF36F8F704746
:10025000B4000020EFF30580704700000648804797
:1002600006480047FEE7FEE7FEE7FEE7FEE7FEE79B
:10027000FEE7FEE7FEE7FEE711240008890100081B
:100280002DE9F05F0546002092469B4688460646CB
:10029000814640241BE0284641464746224600F05E
:1002A00082F853465A46C01A914110D31146184657
:1002B000224600F069F82D1A67EB01084F462246E6
:1002C0000120002100F060F817EB00094E41201ECC
:1002D000A4F10104DFDC484631462A464346BDE826
:1002E000F09F40EA01039B0703D009E008C9121FF1
:1002F00008C0042AFAD203E011F8013B00F8013BE0
:10030000521EF9D27047D2B201E000F8012B491E0B
:10031000FBD270470022F6E710B513460A460446A2
:100320001946FFF7F0FF204610BD30B505462A46B6
:100330000B4612F8010B13F8014B08B1A042F8D09C
:100340001CB1002802D06D1CF1E7284630BD421CCC
:1003500010F8011B0029FBD1801A704730B50B46FD
:10036000014600202022012409E021FA02F59D42E5
:1003700005D303FA02F5491B04FA02F52844151EB9
:10038000A2F10102F1DC30BD202A04DB203A00FAA0
:1003900002F1002070479140C2F1200320FA03F3DC
:1003A000194390407047202A04DB203A21FA02F0DA
:1003B0000021704721FA02F3D040C2F1200291409F
:1003C0000843194670472DE9FE4F804681EA030035
:1003D000C00F0C46009021F0004123F00045B8EB1F
:1003E0000200A94105D24046214690461C460B46D4
:1003F000024623F00040104347D0270DC7F30A0000
:10040000C3F30A510290401A019040286BDAC3F3FB
:10041000130040F4801B0098924620B10023D2EBD9
:10042000030A63EB0B0B01985946C0F1400250469A
:10043000FFF7AAFF06460D4650465946019A00F0BE
:100440008DF910EB08006141002487EA115284EA1B
:10045000E7731A4340D0009A62B3019A012A4FEA27
:10046000075215DC001B61EB02014FF0004202EA6B
:100470000752CDE90042001C41F5801132462B465F
:1004800000F08DF903B0BDE8F08F40462146F9E752
:10049000001B61EB0201001C41F5801300185B4159
:1004A0002018A2F5001747EB030140EAD570B619F2
:1004B0006D4111E06D084FEA360645EAC0754FEA16
:1004C0000752001B61EB0201001C41F58011490835
:1004D0004FEA30000019514132462B4603B0BDE8C7
:1004E000F04F00F04DB90098012240000023D0EBFE
:1004F000020263EBE073009821464FEAE074B8EB28
:10050000000061EB0401E9E783F000435BE781F061
:10051000004158E72DE9FE4F81EA030404F000444E
:1005200021F0004100944FF0000B23F0004350EA0B
:1005300001045ED052EA03045BD0C3F30A54C1F352
:100540000A552C44A4F2F3340194A0FB0254C1F3E5
:10055000130141F48011C3F3130343F4801301FB2F
:10056000024400FB034E840A970A44EA815447EA96
:100570008357A4FB076802958D0A05FB07854FEAA0
:10058000932C04FB0C542705029D4FEA065847EABA
:100590001637B5EB08056EEB070C870E920E47EA8F
:1005A000811742EA8312A7FB0201B6EB0B0164EB51
:1005B00000042B0D43EA0C335E1844EB1C50DA4662
:1005C0005146E7FB0201C5F313044FEA0B3343EA3C
:1005D00014534FEA0432019C43EA0603A4F10C04CD
:1005E0000294009CCDE900B400F0D9F803B0BDE856
:1005F000F08F00200146F9E72DE9F04D81EA030470
:1006000004F0004B21F0004514464FF0000A23F09F
:10061000004150EA050220D054EA01021DD0C5F382
:100620000A570246C5F31303C1F31300C1F30A5678
:1006300040F4801543F48013A7EB0608101BD64640
:1006400008F2FD3873EB050002D308F1010801E060
:1006500092185B41B8F1000F03DA00200146BDE8B3
:10066000F08D00204FF48011064684460EE0171BE3
:1006700073EB050705D3121B63EB050306434CEA36
:10068000010C49084FEA300092185B4150EA01071B
:10069000EDD152EA030012D082EA040083EA050198
:1006A000084305D0101BAB4106D20122002306E00F
:1006B00000224FF0004302E06FF0010253101AEBEA
:1006C00006004CEB085110EB0A0041EB0B01BDE8B2
:1006D000F04D00F055B8C1F30A52C1F3130140F2D6
:1006E000FF3341F480119A4202DA0020014670473C
:1006F00040F233439A42A2F2334202DC5242FFF705
:1007000052BEFFF741BE000030B5041E71F1000477
:1007100004DB4FF00044404264EB0101141E73F10E
:10072000000405DB1C464FF00043524263EB040318
:10073000994208BF904230BD064C074D06E0E06884
:1007400040F0010394E8070098471034AC42F6D318
:10075000FFF71EFDCC580008EC580008202A06DBE5
:10076000CB17203A41FA02F043EAE07306E041FA7F
:1007700002F3D040C2F1200291400843194670476D
:1007800010B5141E73F1000408DA401C41F1000199
:1007900092185B411A4301D120F0010010BD2DE9F0
:1007A000F04D92469B4611B1B1FA81F202E0B0FAE7
:1007B00080F220329046FFF7E7FD04460F4640EAFC
:1007C0000A0041EA0B0153465A46084313D011462A
:1007D00053EA010019D0C8F140025046FFF7E3FD8B
:1007E00005460E46504659464246FFF7CDFD0843A2
:1007F00005D0012004E020463946BDE8F08D0020F8
:10080000054346EAE0762C4337430A986305E40A39
:10081000A0EB08000022FD0A44EA47540A3002D542
:1008200000200146E9E7010510196941DDE90845A5
:1008300000196941BDE8F04DA2E730B58C1810F8F9
:10084000012B12F00F0301D110F8013B120906D160
:1008500010F8012B03E010F8015B01F8015B5B1E4F
:10086000F9D101E001F8013B521EFBD1A142E6D3D0
:10087000002030BDFEE70000014800F096B90000FE
:1008800014220020014800F090B90000142200203A
:10089000014800F08AB9000014220020014800F04D
:1008A00084B90000142200207047000010B5012117
:1008B000044800F057FD03F0A9FDBDE810400820F2
:1008C00000F04CBC0010024090F82020012A07D014
:1008D000022A05D0416A41F480214162012070471B
:1008E000006842690A43426100207047F0B590F801
:1008F00020500468A468012D05D0022D03D0416A60
:1009000041F4802153E014F0406F01D1E5004BD554
:10091000C4F30164022C03D9416A41F4000146E0AA
:100920000125A5401D608D684FF4C0739DB1CE6850
:1009300035434E6845EAC605066803EB0417F551D2
:100940004FF4C275076805EB04150E697E51097DE9
:10095000012905D009E00E88CD6845EA4655EBE748
:1009600001684E5946F480764E511179D2F80550FF
:100970004FF4C67641EA0525016806EB04168D5151
:100980001178D2F801204FF4C47541EA02210268BF
:1009900005EB04155151006803EB0411425842F075
:1009A000010242500020F0BD416A41F40011416251
:1009B0000120F0BD10B590F82020012A07D0022AAE
:1009C00005D0416A41F480214162012010BD3B48BD
:1009D000D0F8002242F00102C0F80022D0F8002234
:1009E00022F47C52C0F80022D0F800224B6A42EA7E
:1009F0000322C0F800220A7D02F01F0301229A4060
:100A0000D0F81C329343C0F81C32CB69B3B9D0F88C
:100A10000C329343C0F80C328C894B6864F31F434B
:100A20004C6900EBC404C4F840320C890B6864F3D1
:100A30001F434C6900EBC404C4F84432CB69012B5A
:100A400016D1D0F80C321343C0F80C320C884B6826
:100A500064F31F434C6900EBC404C4F840320C89B2
:100A6000CB6864F31F434C6900EBC404C4F8443200
:100A70008B69002BD0F804320ED01343C0F8043237
:100A80000B69002BD0F8143208D01343C0F814328D
:100A9000096A012904D008E09343EFE79343F5E79F
:100AA000D0F81C121143C0F81C12D0F8001221F02B
:100AB0000101C0F80012002010BD000000640040D9
:100AC000704730B590F82040012C05D0022C03D09F
:100AD000416A41F480215DE00468002955D0246911
:100AE000A40754D04FF4D874056804EB01142D59B1
:100AF00015F00405956005682D594ED0ED08556038
:100B000005682C5904F00204D4604FF4DA740568C7
:100B100004EB01142D5905F00F05156105682D59D9
:100B2000C5F30725956105682C59240C54614FF4D1
:100B3000DC72046802EB0112A4581C700468A4580B
:100B4000240A5C700468A458240C9C700468A258A1
:100B5000120EDA704FF4DE72046802EB0112A45830
:100B60001C710468A458240A5C710468A458240CFD
:100B70009C710468A258120EDA71006881B1016993
:100B800041F020010161002030BDE468A8E7416A1E
:100B900041F400114162012030BD6D0D1560AFE7D9
:100BA000C16841F02001C160EDE72DE9F05F054625
:100BB000006800244669D0F804908768D0F80CB02B
:100BC000D0F810A0D0F81880F10748D0F90714D059
:100BD00001218160B80703D5284600F04AFA0CE0ED
:100BE000780702D54FF4006407E0380702D54FF4C8
:100BF000805402E0284600F03BFAF80516D5296833
:100C00004FF480708860B80503D5284600F033FAA9
:100C10000CE0780502D544F4005407E0380502D50D
:100C200044F4804402E0284600F024FAF80316D584
:100C300029684FF480308860B80303D5284600F057
:100C40001CFA0CE0780302D544F4004407E03803B2
:100C500002D544F4803402E0284600F00DFA300753
:100C600007D55FEACB6004D52968102044F40074EE
:100C7000C86070074FF0080707D55FEA0B7004D50E
:100C80002868C760284600F081F9B00706D52868B3
:100C9000C068800702D0284600F07AF9700607D5B0
:100CA0005FEACA6004D52968102044F480640861B2
:100CB000B00607D55FEA0A7004D5286807612846A0
:100CC00000F0A6F9F00606D528680069800702D072
:100CD000284600F09EF9B00308D55FEAC96005D543
:100CE000296810204860284600F094F9F00307D5E1
:100CF0005FEA097004D528684760284600F0BEF90D
:100D0000300446D55FEA497040D5F00504D55FEA66
:100D1000C87001D044F00104B00504D55FEA8870C2
:100D200001D544F00204700504D55FEA487001D58E
:100D300044F00404300529D518F0700F26D008F0CF
:100D40007000402815D006DC102809D020280AD0D1
:100D5000302816D10AE050280ED0602811D10EE0BC
:100D600044F008040DE044F010040AE044F02004CC
:100D700007E044F0400404E044F0800401E044F45F
:100D800080742868816921F07001816129680420DC
:100D90004860002C05D0686A204368622846FFF747
:100DA0008FFEBDE8F09F70B5040003D094F82000DA
:100DB00010B104E0012070BD204600F091F82068D9
:100DC000016841F00101016000F0DAFA05460526EC
:100DD00004E000F0D5FA401B0A2811D820684068CA
:100DE000C007F6D02068016821F00201016000F020
:100DF000C7FA05460BE000F0C3FA401B0A2806D9E3
:100E0000606A40F40030606284F82060D2E72068B5
:100E100040688007EFD4207E0128206801683DD01B
:100E200021F080010160607E01282068016838D0CF
:100E300021F040010160A07E01282068016833D0C4
:100E400021F020010160E07E0128206801682ED099
:100E500041F010010160207F01282068016829D03D
:100E600021F008010160607F01282068016824D01A
:100E700021F004010160D4E902010843D4E904121D
:100E8000114308436168491E08432168C861002076
:100E90006062012084F82000002070BD41F08001D4
:100EA000C0E741F04001C5E741F02001CAE721F069
:100EB0001001CFE741F00801D4E741F00401D9E780
:100EC0000346002093F82020012A01D0022A05D1F0
:100ED0001A6889069268914300D00120704700008B
:100EE00010B586B0044614216846FFF713FA24496A
:100EF0002068884241D123480021026842F00072F4
:100F00000260006800F0007005901E48103802680A
:100F100042F001020260006800F0010005904FF409
:100F2000C05000900220CDE9010103200390092068
:100F300004906946144800F01DF900220521132091
:100F400000F0AAFA132000F099FA002205211420DB
:100F500000F0A2FA142000F091FA002205211520D9
:100F600000F09AFA152000F089FA002205211620D7
:100F700000F092FA162000F081FA06B010BD0000D1
:100F8000006400404038024000000240704700000A
:100F900010B50E4B0E4A00210E48FFF792FD0B498B
:100FA0000B4C143910B10120487007E0206858B18B
:100FB000032048700848006802F054FB2169BDE82E
:100FC000104006A001F00ABC0220F2E78C000020CD
:100FD000F0010020142200209C000020746865208D
:100FE00064617461207761732072656365697665F9
:100FF000642066726F6D2043414E2C2064617461E1
:10100000206C656E6774682069732025640A0D0082
:10101000704770477047000070B5044690F8200094
:10102000012804D0606A40F40020606218E00220C9
:1010300084F820002068016821F00101016000F0BF
:101040009FF905460EE000BF00F09AF9401B0A2800
:1010500008D9606A40F400306062052084F82000FE
:10106000012070BD20684068C007EDD1606270BD8E
:1010700070477047704770477047704770472DE959
:10108000F0410446876D00F07BF9064694F8350080
:101090000025022806D08020606584F834500120A5
:1010A000BDE8F0812068016821F016010160206828
:1010B000416921F080014161206C08B9A06C20B128
:1010C0002068016821F0080101602068016821F0B2
:1010D000010101600CE000F053F9801B052807D9DD
:1010E00020206065032084F8350084F83450D7E769
:1010F00020680068C007EED194F85C103F2088405B
:10110000B860012084F8350084F834500020C7E727
:1011100090F83510022903D08021416501207047E5
:10112000052180F835100068016821F00101016097
:101130000020704770B5044600F022F90546601C97
:1011400002D004480078044400F01AF9401BA04281
:10115000FAD370BDA400002070470000044910B508
:101160000A68024202D00860FFF7F6FF10BD0000D7
:10117000143C01402DE9F84FDFF8BCA10022012505
:101180000AF1040B03264FF00F090BF1040E00BF08
:101190000B6805FA02F42340A34270D10F7907F0DF
:1011A0000307012F01D0022F16D187684FEA4208AA
:1011B00006FA08FC27EA0C07D1F80CC00CFA08FC68
:1011C0004CEA070CC0F808C04768A7430C79C4F381
:1011D000001494403C4344600C79E443A4070AD0D3
:1011E000C4684FEA420C06FA0CF7BC438F6807FA52
:1011F0000CF72743C7600C7904F00304022C12D1CA
:10120000D40800EB840CDCF820405707FF0E09FAE5
:1012100007F824EA0804D1F8108008FA07F848EA29
:101220000408CCF8208004684FEA420C06FA0CF758
:10123000BC430F7907F0030707FA0CF72743076051
:101240004C6814F4403F70D03C4C276847F480470A
:101250002760246822F0030704F480440094384C8B
:1012600007EB040CDCF8084897074FEA177809FAEF
:1012700008F7BC43334FB84202D1002724E054E0C2
:10128000314FB84201D101271EE0304FB84201D1A1
:10129000022719E02E4FB84201D1032714E02D4F49
:1012A000B84201D104270FE02B4FB84201D10527E6
:1012B0000AE02A4FB84201D1062705E0284FB8427C
:1012C00001D1072700E0082707FA08F72743CCF8E1
:1012D0000878DAF800405746D1F804C09C435FEA2A
:1012E000CC3C00D51C433C60DBF800405F46D1F8A5
:1012F00004C09C435FEA8C3C00D51C433C60DEF894
:1013000000407746D1F804C09C435FEACC2C00D55E
:101310001C433C60084F0C373C68D1F804C09C4328
:101320005FEA8C2C00D51C433C60521C102AFFF451
:101330002FAFBDE8F88F0000003C01404438024068
:10134000003001400000024000040240000802405A
:10135000000C02400010024000140240001802403D
:10136000001C0240426921EA02030A4043EA0241AA
:10137000816170470AB1816170470904FBE7000091
:101380000148806870470000A4000020024881687E
:101390000278114481607047A40000200B4810B50A
:1013A000016841F400710160016841F480610160ED
:1013B000016841F480710160032000F08DF8002085
:1013C00000F006F800F03EF8002010BD003C02409E
:1013D00010B5014688B00022362000F05DF83620B6
:1013E00000F04CF813480024016841F0100101603E
:1013F000006805A900F010000690684600F018F992
:1014000000F036F90C494000B0FBF1F10C480B4AF2
:10141000491E026040F2E732C0E90324C0E901142A
:1014200000F02EFB10B1012008B010BD044800F000
:1014300055FBF9E74038024040420F0000100040E1
:10144000EC2200200C4882B0016841F48041016028
:10145000006800F4804000900748001F016841F0D8
:10146000805101600068002200F0805000900F2140
:10147000901E02B000F010B844380240002809DB8A
:1014800000F01F02012191404009800000F1E0209E
:10149000C0F8001170470000F0B40E4B1B680C46FA
:1014A000C3F30223C3F10705042D00D90425191D38
:1014B000072901D2002300E0DB1E012606FA05F110
:1014C000491E214099409E40761E16403143F0BC93
:1014D00001F0A8B90CED00E0064900F00702086829
:1014E0004FF6FF03184040EA0220034A1043086009
:1014F000704700000CED00E00000FA052DE9F04710
:101500000E46050065D0DFF81481D8F80000F7B268
:1015100000F00700B04207D288F80070D8F8000049
:1015200000F00700B04254D128683D4C810712D525
:10153000400703D5206840F4E05020602878000779
:1015400003D5206840F4604020602068A96820F03E
:10155000F000084320602878C0072DD03049686823
:101560000839012812D0022813D0032811D00968A5
:10157000890700292DDA216821F003010143216048
:10158000FFF7FEFE814641F2883A0EE009688903C2
:10159000EFE709688901ECE7FFF7F2FEA0EB09012C
:1015A000514502D90320BDE8F0872068696800F042
:1015B0000C00B0EB810FEFD1D8F80010404601F0DD
:1015C0000701B14207D90770006800F00700B04278
:1015D00001D00120E7E72878400705D52068E968B1
:1015E00020F4E050084320602878000706D52068E2
:1015F000296920F4604040EAC100206000F058F8FA
:101600002168084AC1F30311515CC84006490860CB
:1016100006480068FFF7DCFE0020C4E7003C0240FB
:101620000838024074580008B0000020A8000020CC
:101630000F2202600C4A136803F00303436013682F
:1016400003F0F0038360136803F4E053C36012688F
:101650004FF4E05303EAD20202610448006800F04C
:10166000070008607047000008380240003C024054
:101670000448054900680968044AC1F38221515CA5
:10168000C8407047B0000020083802408458000865
:101690000448054900680968044AC1F34231515CB5
:1016A000C8407047B0000020083802408458000845
:1016B000154810B5006810F00C02144813D0411002
:1016C000042A0FD0082A0ED10F4C241F2268236849
:1016D00002F03F025B0207D52068C0F38810A0FB30
:1016E000010106E0084610BD2168C1F38811A1FB85
:1016F00000010023FEF7C4FD2168C1F30141491C2C
:101700004900B0FBF1F010BD083802400024F4009D
:101710002DE9F84F04006ED02078DFF84C93C00715
:10172000A9F104054AD009F104000168C1F381015F
:10173000012908D00068C0F3810002280AD1D9F835
:101740000000400206D52868800337D5606800286D
:10175000E1D033E06068B0F5803F10D0B0F5A02F45
:10176000286810D020F480302860286820F4802079
:1017700028606068A8B1FFF703FE06460DE0286800
:1017800040F48030F4E740F480202860F7E700BFA1
:10179000FFF7F6FD801B642873D828688003F7D50F
:1017A0000CE0FFF7EDFD064605E000BFFFF7E8FDA2
:1017B000801B6428F0D828688003F7D42078DFF8ED
:1017C000AC8280074FF0000A3ED5A748001D016893
:1017D00011F00C0F08D00068C0F3810002280BD173
:1017E000D9F80000400207D42868800716D5E068C1
:1017F000012800D112E033E1E068B8B10120C8F857
:101800000000FFF7BDFD064605E000BFFFF7B8FD8D
:10181000801B0228C0D828688007F7D5286821696E
:1018200020F0F80040EAC10028600DE0C8F800A0F0
:10183000FFF7A6FD064604E0FFF7A2FD801B022885
:101840001FD828688007F7D42078000722D5864F54
:1018500087486169703771B101210160FFF790FD20
:10186000064604E0FFF78CFD801B022809D8386883
:101870008007F7D50EE0C0F800A0FFF781FD06460F
:1018800005E082E0FFF77CFD801B02287DD83868E8
:101890008007F7D42078400768D5DFF8CCB100275F
:1018A0000BF13C0BDBF80000C0000BD4DBF80010A0
:1018B00041F08051CBF80010DBF80000012700F068
:1018C000805000906B4E3068C00510D4306840F4F2
:1018D00080703060FFF754FD009005E0FFF750FD89
:1018E0000099401A022850D83068C005F6D55E4EDF
:1018F000A0686C3601280FD00528306810D020F081
:1019000001003060306820F004003060A068B8B199
:10191000FFF736FD00900FE0306840F00100F4E77B
:1019200040F004003060F7E7FFF72AFD0099411A04
:1019300041F28830814266D830688007F4D50EE0E5
:10194000FFF71EFD009007E0FFF71AFD0099411A0E
:1019500041F28830814256D830688007F4D42FB1E4
:10196000DBF8001021F08051CBF80010A069C8B35B
:101970003D49091D0968C1F3810102294AD00228A5
:10198000504607D0C8F8600000E03CE0FFF7F8FCE4
:1019900004463BE04746C8F86000FFF7F1FC064606
:1019A00005E000BFFFF7ECFC801B02282BD828685D
:1019B0008001F7D4D4E907010843A16A2E4A4908F7
:1019C00002EB0141626A41EA8211084394F82C104B
:1019D00040EA0161C9F8001001203866FFF7D0FC29
:1019E000044606E03EE000BFFFF7CAFC001B0228E9
:1019F00009D828688001F7D534E000BFFFF7C0FCA4
:101A0000001B022802D90320BDE8F88F2868800156
:101A1000F4D427E00128F7D0D9F80000E26900F4F7
:101A2000800191421CD1226A00F03F01914217D1FE
:101A300047F6C071626A0140B1EB821F10D1A26A01
:101A40004FF0FF3300F4403103EB5202B1EB024F91
:101A500006D194F82C1000F07060B0EB016F01D04B
:101A60000120D1E70020CFE70438024000004742C0
:101A7000800E4742007000400000FFFF7047704733
:101A800010B5040003D094F83D0010B107E0012028
:101A900010BD002084F83C00204600F01EF8022013
:101AA00084F83D00211D206800F0C0FC012084F86E
:101AB000460084F83E0084F83F0084F8400084F833
:101AC000410084F8420084F8430084F8440084F81C
:101AD000450084F83D00002010BD704790F83D108F
:101AE000012901D001207047022180F83D100168D2
:101AF000CA6842F00102CA6000681149884214D0E5
:101B0000B0F1804F11D00F4988420ED00E49884263
:101B10000BD00E49884208D00D49884205D00D49A6
:101B2000884202D00C49884204D1816801F0070143
:101B3000062903D0016841F00101016000207047CF
:101B4000000001400004004000080040000C00407C
:101B5000000401400040014000180040704770B58B
:101B60000446006801694FF00005C943890715D490
:101B7000C168C943890711D4E91E0161012020779A
:101B8000206880698007204602D0FFF7E7FF04E065
:101B900000F098F8204600F096F825772068016953
:101BA000C943490717D4C168C943490713D46FF023
:101BB00004010161022020772068806910F4407FD1
:101BC000204602D0FFF7CAFF04E000F07BF8204671
:101BD00000F079F8257720680169C943090716D410
:101BE000C168C943090712D46FF0080101610420DC
:101BF00020772068C0698007204602D0FFF7AEFF3B
:101C000004E000F05FF8204600F05DF825772068DA
:101C10000169C943C90617D4C168C943C90613D4A9
:101C20006FF010010161082020772068C06910F46E
:101C3000407F204602D0FFF791FF04E000F042F819
:101C4000204600F040F8257720680169C943C9079C
:101C500008D1C168C943C90704D1891E0161204662
:101C600000F032F820680169C943090609D4C16847
:101C7000C943090605D46FF0800101612046FFF7D2
:101C8000FDFE20680169C943490609D4C168C943FA
:101C9000490605D46FF040010161204600F01EF8AE
:101CA00020680169C94389060BD4C168C943890604
:101CB00007D46FF0200101612046BDE87040FFF7B6
:101CC000DEBE70BD7047704700680349884201D18D
:101CD000FFF75CBB70470000001000407047704782
:101CE00070470000F8B5016804460868CA684B6987
:101CF00010F00F0F4FF0000559D003F0010602F469
:101D00009077374365D0C10705D0D10503D5216C45
:101D100041F001012164410705D5D90703D0216CA9
:101D200041F002012164810705D5D90703D0216C58
:101D300041F004012164010707D502F0200131437D
:101D400003D0216C41F008012164216C00293AD0B4
:101D5000800604D5900602D5204600F000FC2068DD
:101D60004069216CC0F38010090700D460B320469D
:101D700000F0CEFB20684069400621D52068143071
:101D800050E8001F21F0400140E80012002AF5D180
:101D9000A06BA8B16C490165A06BFFF7B9F90028E9
:101DA00011D0A06B016D01B0BDE8F040084783067B
:101DB0000FD593060DD52046BDE8F84000F0CFBB07
:101DC0002046FFF78DFFF8BD2046FFF789FF256409
:101DD000F8BD266B2023012E79D1C60677D5D6060D
:101DE00075D50868486800904869400640D5A16BE1
:101DF000086840680004000CEAD0A28D8242E7D94E
:101E0000E085C869B0F5807F2DD020680C3050E89F
:101E1000001F21F4807140E80012002AF5D12068EB
:101E2000143050E8001F21F0010140E80012002AA0
:101E3000F5D12068143050E8001F21F0400140E83F
:101E40000012002AF5D184F83E30256320680C305A
:101E500050E8001F21F0100140E80012002AF5D1DF
:101E6000A06BFFF70CF9A08DE18D401A81B229E03B
:101E7000A08DE18D401A81B2E08D0028A8D0002904
:101E8000A6D020680C3050E8002F22F4907240E871
:101E90000026002EF5D12068143050E8002F22F0E3
:101EA000010240E80026002EF5D184F83E3025637B
:101EB00020680C3050E8002F22F0100240E8002388
:101EC000002BF5D12046FFF70AFFF8BDFFE7050616
:101ED0002BD5150629D594F83D002128F5D1A06809
:101EE000B0F5805F01D12069B0B1206A411C216248
:101EF000216800784860E08C401E0004000CE084FB
:101F0000E3D12068C16821F08001C1602068C16808
:101F100041F04001C160D8E7206A0088C0F30800A2
:101F20004860206A801C2062E5E74006CDD5500657
:101F3000CBD5CA68204622F04002CA6084F83D3002
:101F400000F04AF9C1E700000125000870B504005F
:101F500004D094F83D00002510B106E0012070BDCA
:101F600084F83C50204600F023F8242084F83D00FB
:101F70002068C16821F40051C160204600F050FB88
:101F80002068016921F4904101612068416921F0D4
:101F90002A0141612068C16841F40051C160256493
:101FA000202084F83D0084F83E00002070BD000031
:101FB00030B587B0044614216846FEF7ABF9274DCB
:101FC00021680024264803220223A94226D124495D
:101FD00010310C6844F400240C60096801F40021FD
:101FE0000591016841F0010101600068694600F057
:101FF000010005900120CDE9020208200490CDE9FE
:1020000000231848FFF7B6F8002205213420FFF717
:1020100043FA3420FFF732FA07B030BD124DA9421F
:10202000FAD10F4914310D6845F010050D600968AB
:1020300001F010010591016841F0020101600068A2
:10204000694600F002000590C0208DE819000720C5
:10205000CDE903200548FFF78DF8DDE7004C00408F
:1020600030380240000002400010014000040240ED
:1020700090F83E30202B0ED159B152B190F83C303F
:10208000012B08D0012380F83C300023036300F0CB
:102090004DBB0120704702207047000010B51E2282
:1020A0000C490D48FFF7E4FF0CA10A48FEF73DF983
:1020B00050B10B4C2078022806D10022012109489A
:1020C000FFF758F900202070BDE810401E2101489C
:1020D000FEF720B9580000203C2200204F4B0000A2
:1020E00078000020001002402DE9F843044690F8E3
:1020F0003D001F4616460D4620284CD1C5B1BEB145
:1021000094F83C00012846D0012084F83C004FF0B0
:102110000008C4F84080212084F83D00FFF730F922
:10212000A6848146E684A068B0F5805F03D004E011
:102130000120BDE8F883206928B12E465FF0000534
:1021400084F83C800EE00026FAE78021204600F06B
:1021500008FBA0B9AEB116F8010B21684860E08C0D
:10216000401EE084E08C4B464FF0000200970028B0
:10217000EBD14FF04001204600F0F3FA30B10320DC
:10218000D7E735F8020BC0F30800E6E7202084F813
:102190003D000020CDE70220CBE790F83D30202B1A
:1021A00018D1A9B1A2B190F83C30012B12D0016234
:1021B0008284C28400210164212280F83D2080F8BD
:1021C0003C100068C16841F08001C1600020704788
:1021D00001207047022070477047FEE770B519482C
:1021E0001749002401600F21C0E901144FF4403168
:1021F000C0E903414FF48011416104760125457621
:102200008476C57604774477FEF7CDFD08B172B6C3
:10221000FEE70C480E21B030446104610460446064
:102220008460C0E90851C460C0E906450146B03881
:10223000FEF7C0FB002801D072B6FEE770BD0000BB
:1022400000640040142200202DE9F04F87B01421D3
:102250006846FEF75FF83C484FF0000B016841F01C
:1022600004010160016801F004010591016841F079
:1022700080010160016801F080010591016841F071
:1022800001010160016801F001010591016841F05F
:1022900002010160016801F002010591016841F04D
:1022A000100101600068DFF8A48000F010000590C4
:1022B00000220C214046FFF75DF8DFF894904FF4C0
:1022C0008167002239464846FFF754F8DFF884A0BA
:1022D000012203215046FFF74DF80C20012402256E
:1022E00003268DE8710069464046FEF743FF04204F
:1022F000CDE9000B694602954846FEF73BFF01AA6F
:10230000009782E8700069464846FEF733FF0820D0
:1023100000904FF48810CDE9010569460E48FEF79C
:1023200029FFCDE90064CDE9024669465046FEF733
:1023300021FF002205210920FFF7AEF80920FFF751
:102340009DF807B0BDE8F08F303802400008024029
:10235000000002400010024000040240FEE7FEE7D9
:1023600010B54FF0E020006903F046F8012803D0D3
:10237000BDE8104002F086BB10BD000030B593B040
:1023800030216846FDF7C6FF14210CA8FDF7C2FFF7
:102390001D480025016841F080510160006800F08F
:1023A000805011901948016841F480410160006833
:1023B000022400F48040119001200090000401905C
:1023C0008001CDE9064008AA0420A82182E8130074
:1023D0000B906846FFF79CF908B172B6FEE70CA9AE
:1023E0000F2081E831004FF4A0500F904FF480503F
:1023F000109005210CA8FFF781F8002801D072B6D3
:10240000FEE713B030BD00004038024000700040CD
:102410000248016841F470010160704788ED00E0F6
:102420000148FFF79CBB0000EC220020F0B50268D9
:10243000254C264D264E274F274B4FF0804CA0426F
:1024400009D0604507D0A84205D0B04203D0B842B9
:1024500001D0984204D122F0700E4A6842EA0E027E
:10246000A0421BD0604519D0A84217D0B04215D069
:10247000B84213D0984211D0184DA8420ED0184D32
:10248000A8420BD0174DA84208D0174DA84205D03E
:10249000164DA84202D0164DA84203D122F4407531
:1024A000CA682A434D6922F080022A4302608A6882
:1024B000C2620A688262A04201D0984201D10969D1
:1024C000016301214161F0BD0000014000040040B2
:1024D00000080040000C00400004014000400140A2
:1024E000004401400048014000180040001C00402A
:1024F000002000400148FFF7F5BB00003C2200200F
:1025000010B5806B0021C185C184FFF7E9FB10BDC8
:1025100001680C3151E8002F22F4907241E8002349
:10252000002BF5D10168143151E8002F22F001028F
:1025300041E80023002BF5D1016B012909D1016885
:102540000C3151E8002F22F0100241E80023002B4B
:10255000F5D1202180F83E1000210163704708B5B5
:1025600090F83E10222901D0022008BD82684FF465
:1025700080539A4201D1016921B1816A9A421BD0EC
:102580004AB10AE00268816A5268C2F308020A800E
:10259000816A891C08E0026972B10268526802F01F
:1025A0007F020A70816A491C8162C18D491E09043B
:1025B000090CC18503D019E002685268F1E701688F
:1025C000CA6822F02002CA600168CA6822F48072D8
:1025D000CA6001684A6922F001024A61202180F83C
:1025E0003E10016B012903D0FFF758FD002008BD04
:1025F0000021016301680C3151E8002F22F0100224
:1026000041E80023002BF5D101680A68D20602D503
:102610000A6849680091818DFFF761FBE6E70000D9
:1026200070B5044600680169E26821F44051114325
:1026300001612169A068E2690843616911430843A7
:102640002168CA6849F20C639A430243CA60206851
:102650004169A26921F44071114341613149206807
:10266000884202D03049884202D1FFF711F801E0D8
:10267000FEF7FEFFE2690023192164253226B2F538
:10268000004F626828D0A0FB0101930F9200FDF774
:10269000F7FD0146B0FBF5F06FF01802504301EB77
:1026A000800006EB0010B0FBF5F000F0F002B1FB8B
:1026B000F5F002EB0012B1FBF5F06FF01803584390
:1026C00001EB800006EB0010B0FBF5F000F00F000E
:1026D00021681044886070BDA0FB010192185B4125
:1026E000FDF7CEFD0146B0FBF5F00201B1FBF5F0C0
:1026F0006FF01803584301EB800006EBC000B0FBFD
:10270000F5F000F0F80002EB4002B1FBF5F05843A1
:1027100001EB800006EBC000B0FBF5F000F0070015
:10272000D6E700000010014000140140816282855C
:10273000C28500210164222280F83E2080F83C10EE
:102740000168CA6842F48072CA6001684A6942F04E
:1027500001024A610068C16841F02001C1600020A7
:1027600070472DE9F041984617460E460446069DEF
:1027700027E0681C25D02DB1FEF702FEA0EB080073
:10278000A8421ED920680C3050E8001F21F4D071F7
:1027900040E80012002AF5D12068143050E8001FEC
:1027A00021F0010140E80012002AF5D1202084F830
:1027B0003D0084F83E00002084F83C000320BDE882
:1027C000F0812068006836EA000004D00020B8429A
:1027D000CFD00020F3E70120F9E7FEE70FB4054B67
:1027E00010B503A9044A029800F0FEF810BC5DF889
:1027F00014FB0000DD330008340100200FB4084B47
:1028000010B504A902AA039800F0EEF8044602A944
:10281000002000F080FC204610BC5DF814FB000096
:10282000173100080907090E002804DB00F1E02039
:1028300080F80014704700F00F0000F1E02080F8ED
:10284000141D704702E008C8121F08C1002AFAD1FF
:1028500070477047002001E001C1121F002AFBD120
:10286000704700002DE9FF5F82B00021DDE90430F0
:10287000020DDDF840B0034318D044F61050A2F228
:10288000FF3242431514119801281FD0A5EB0B000D
:10289000401C5FEA000A4FF000064E4FDFF8389107
:1028A000B046504615D5CAF1000413E01198012432
:1028B0004AA3012801D16FEA0B010298119AC0E9DD
:1028C0000031C0E9024206B0BDE8F09FCBF1000044
:1028D000DFE704460021404A491842EB0450CDE9A5
:1028E000001012E0E00707D032463B46404649461A
:1028F000FDF710FE8046894632463B461046194693
:10290000FDF708FE06460F466410002CEAD1DDE90B
:102910000401DDE90023BAF1000F06DAFDF7FAFD44
:1029200042464B46FDF7F6FD05E0FDF765FE4246E3
:102930004B46FDF761FE04460E460022284BFDF78C
:10294000E3FE03D84FF0FF30014607E00022254B9D
:1029500020463146FDF737FDFDF7BDFE102409E0A6
:10296000002C0ADB0A220023FDF78AFC039B30328D
:102970001A55641E50EA0102F2D1641C039AC4F194
:1029800011031444119A012A03D0012208430DD1E6
:102990000AE0084304D000204FF0110B119072E7B9
:1029A000A3EB0B056D1E0DE05B4504DD4FF000024F
:1029B00005F1010504E003DA4FF00002A5F101057D
:1029C000002AECD002981199C0E90231C0E9004513
:1029D00079E70000000014400000F03F30000000E4
:1029E0000000F0430000E03F2DE9FF4F95B09B460B
:1029F0008946064600250FE2252877D10024274680
:102A0000F84A0121059400E0044316F8013F203BF9
:102A100001FA03F01042F7D130782A2811D06FF074
:102A20002F033078A0F13002092A16D8059A44F015
:102A3000020402EB820203EB42021044761C059072
:102A4000EFE759F8042B0592002A03DA504244F4C8
:102A50000054059044F00204761C30782E2816D1DC
:102A600016F8010F44F004042A280DD06FF02F024D
:102A70003078A0F13003092B09D807EB870302EB6C
:102A80004303C718761CF3E759F8047B761C3078AB
:102A90006C280FD006DC4C2817D068280DD06A2887
:102AA00014D104E0742810D07A280FD10DE044F43A
:102AB00000140AE044F4801401E044F440147278F5
:102AC000824202D104F58014761C761C3078662888
:102AD0000BD013DC582877D009DC002875D04528A6
:102AE000F6D04628F4D047281AD19DE118E0632893
:102AF00035D0642879D0652812D195E1702873D03B
:102B000008DC6728F1D069286FD06E280DD06F28B7
:102B100006D1B5E073282CD0752875D0782874D0EC
:102B20005A46179990476D1C75E1C4F3025002286C
:102B300009D003280DD0D9F8001004280DD00D605D
:102B400009F1040967E1D9F80010EA17C1E9005258
:102B5000F6E7D9F800100D80F2E70D70F0E719F8EC
:102B6000041B8DF8001000208DF80100EA460120BA
:102B700003E059F804AB4FF0FF3061074FF000015C
:102B800002D40DE008F101018846B9420FDA804510
:102B9000F8DB1AF808100029F4D108E008F1010167
:102BA00088468142FADB1AF808100029F6D1059808
:102BB0005B46A0EB080721463846179A00F094FAC6
:102BC000284400EB080507E04DE029E10DE01AF884
:102BD000010B5A4617999047B8F10108F7D25B46A6
:102BE00021463846179A13E142E00A220092C4F3C4
:102BF00002524FF0000A022A08D059F804CB032AE7
:102C00004FEAEC710AD00DE029E02AE009F1070152
:102C100021F00702F2E802C1914609E00FFA8CFCAC
:102C20004FEAEC71042A03D14FFA8CFC4FEAEC71A5
:102C3000002907DA0A460021DCF1000C61EB0201F1
:102C40002D2202E0220504D52B228DF8042001223A
:102C500003E0E20701D02022F7E7904659E00A217D
:102C600002E010220DE010214FF0000A00910BE06D
:102C700010224FF0000A44F004040827009203E0F9
:102C800008224FF0000A0092C4F30252022A05D033
:102C900059F804CB0021032A08D009E009F1070103
:102CA00021F00702F2E802C1914605E01FFA8CFC10
:102CB000042A01D10CF0FF0C4FF00008220728D5A0
:102CC000702806D0009B83F0100353EA0A0305D056
:102CD0000EE040228DF80420012208E05CEA0102A7
:102CE00006D030228DF804208DF80500022290468F
:102CF000009B83F0080353EA0A030AD15CEA01024D
:102D000001D1620705D530228DF804204FF001086B
:102D10007F1E582804D034A003900EA802900DE026
:102D200036A0F9E753466046009AFDF7A9FA8446B3
:102D30000398825C0298401E029002705CEA0100D7
:102D4000F0D1029806A9081A00F1200A600702D5FE
:102D500024F4803400E00127574502DDA7EB0A0088
:102D600000E0002000EB0A01009005984144401A61
:102D70000590E00306D45B462146179A059800F0BB
:102D8000B3F90544002706E001A85A46C05D17992B
:102D900090476D1C7F1C4745F6DBE0030CD55B4676
:102DA0002146179A059800F09FF9054404E0302069
:102DB0005A46179990476D1C0099481E00900029AB
:102DC000F5DC08E0029802995A460078491C029105
:102DD000179990476D1CBAF10001AAF1010AF1DCC4
:102DE00065E10000092801003031323334353637CF
:102DF0003839616263646566000000003031323347
:102E000034353637383941424344454600000000E6
:102E100000F058F90544761C307800287FF4ECADBA
:102E200019B02846BDE8F08F620700D4062709F1E3
:102E3000070222F0070CFCE80223E14603F00048F9
:102E40005FEA080C02D00FF2702C0DE05FEA045C20
:102E500002D50FF2682C07E05FEAC47C02D00FF2C3
:102E6000602C01E0AFF2700C4FF0FF3823F000430C
:102E7000CDF850C065280CD006DC452809D046287E
:102E80001DD047283DD13DE0662818D067287ED167
:102E900038E00021112F01DB112000E0781CCDE982
:102EA000000106A90EA8FFF7DDFCDDE90F010E9A6F
:102EB00003910021009207F1010A04914DE04FF0C7
:102EC00000400097CDE9011006A90EA8FFF7CAFC43
:102ED000DDE90F0203920E9B11990022DDF80CA090
:102EE0000093049211B9791C00EB010AB7EB0A00B8
:102EF00004D4C0F1FF3007F1010A0490AAEB0700E7
:102F0000019044E0012F00DA01270021112F01DD9B
:102F1000112000E03846CDE9000106A90EA8FFF710
:102F2000A1FCDDE90F010E9A0391002104910092AA
:102F3000BA4621070CD40399514500DA8A46BAF102
:102F4000010F05DD009AAAF10101515C302908D07A
:102F5000B84202DA10F1040F06DA0121CDE90110BE
:102F600015E0AAF10101E9E7002805DC0499014414
:102F70000491AAEB000102E0411C514500DD8A46A4
:102F80000499401A401C01904FF000400290200725
:102F900004D40198504501DBCDF8048000208DF861
:102FA0004F0002980DF14F07B0F1004F25D02B20B4
:102FB0000E9002984FF0020800280CDA404202906E
:102FC0002D200E9007E00A210298FDF7C7F9303155
:102FD000029007F8011DB8F10001A8F10108F2DC28
:102FE00002980028EFD1791E0E980870307800F012
:102FF000200040F0450007F8020D12A8C01B00F1A8
:1030000007081498007800B1012000EB0A0101982C
:1030100001EBE07105984144401A401E0590E00321
:1030200006D45B462146179A059800F05DF80544E2
:103030001498007818B15A46179990476D1CE00310
:1030400024D55B462146179A059800F04DF80544B3
:103050001CE00498002807DBDDE90301884203DD5A
:103060000098405C179901E0179930205A46904724
:10307000049805F10105401C04900198401E019040
:1030800004D12E205A46179990476D1CBAF10001C1
:10309000AAF1010ADDDC05E017F8010B5A46179981
:1030A00090476D1CB8F10001A8F10108F4DC5B4603
:1030B0002146179A0598ABE62D0000002B00000072
:1030C000200000002DE9F041044600251E46174669
:1030D000880404D405E039462020B0476D1C641EE6
:1030E000F9D52846BDE8F0812DE9F04104460025D8
:1030F0001E469046C80301D5302700E020278804EB
:1031000004D505E041463846B0476D1C641EF9D52C
:103110002846BDE8F0810A68531C0B6010707047A8
:1031200010B500224FF480610648FEF723F90648E7
:10313000FDF772FF12210448FDF7C6FB034900208A
:10314000487010BD000002401422002078000020CA
:1031500010B5144C6278012A23D0052A21D0082901
:1031600003DD00BF4FF0080300E00B460E4A136179
:103170004FF000039360D3604FF00503136001DD4F
:103180004FF008010A460146064800F10C00FDF721
:10319000A8F80420607005480068BDE8104000F001
:1031A00061BA10BD78000020D80100209C000020EA
:1031B000064D4FF0FF342146A86800F0C5F900F035
:1031C00007F8012000F080F9F5E7000094000020E6
:1031D0002DE9F84F4B4D6878A0B100264FF001095A
:1031E0004FF4805A02280FD003286BD0042878D1DE
:1031F00005F108031A1D44494448FDF777FB0527EC
:103200002C4670E042A079E03F4C41F2060734348E
:10321000A4F11C0861882046D8F8102007448B18B8
:1032200000F1060B01EB0B00009753451CD8354904
:103230001431FDF756F86188B8F810005746084475
:1032400080B26080B84235D15246A11D0098FDF78A
:1032500048F8A780668084F80090042028703748DA
:10326000006800F0FFF925E0C1F5805725493A468E
:103270001431FDF736F85246A11D0098FDF731F8DC
:10328000A4F804A084F80090042028702B4800685B
:1032900000F0E8F96680D8F810004546C21B1948CE
:1032A0001430C1195846FDF71CF8298A6088C91BDB
:1032B000084460806188002913D0BDE8F84F20A041
:1032C000FFF78CBA2AA019E06068401C606032A049
:1032D000FFF784FA6F706068504504D3666085F824
:1032E0000190BDE8F88F0948A168FDF7E9FD0028C5
:1032F000EAD168780128F4D06E702EA0BDE8F84FAE
:10330000FFF76CBA78000020D801002014220020BA
:103310007468652043414E20636F6D6D756E6963FF
:103320006174696F6E2077617320696E6974696179
:103330006C697A65642E0A0D00000000A000002070
:10334000746865206461746120776173206C6F61BB
:1033500064656420746F2074656D7062756666655F
:10336000722061732073697A652025642E0A0D002E
:103370007468652064617461207761732070617383
:1033800073656420746F206F74686572206465765D
:103390006963650A0D0000007468652064617461EA
:1033A0002069732070656E64696E67206E6F772E7A
:1033B0000A0D000074686520646174612077617390
:1033C0002073656E7420746F206F7468657220645A
:1033D00065766963652E0A0D0000000013B54FF68F
:1033E000FF73012269460248FEF77EFE00981CBD6D
:1033F00080220020FDF7D2FFFEF7C0FFFEF724FF7A
:10340000FEF7ECFE294828494FF4E135002401601D
:10341000C0E901540C26C460C0E904468461C4615B
:10342000FEF794FD08B172B6FEE720482049443803
:103430000160C0E90154C460C0E904468461C4610C
:10344000FEF784FD08B172B6FEE70022022119489A
:10345000FDF790FFFFF764FE00F04EFE00F044F829
:103460000121154A084600F0A3F8144C124A012124
:10347000A0601032084600F09BF8E0604FF0FF318A
:10348000A06800F061F80C4A0021483A0C4800F0AE
:1034900015F9094A2060243A00210A4800F00EF983
:1034A000606000F035F8FEE7001001408022002047
:1034B000004C0040001002405458000894000020C6
:1034C000B1310008BD43000810B50146EFF3058097
:1034D00010B16FF0050404E0002411B1084601F0BA
:1034E00011F9204610BD0000EFF30580002802D03E
:1034F0006FF0050070470548016811B14FF0FF30CB
:103500007047012101600020704700000401002085
:1035100010B5EFF30580002802D06FF0050010BD54
:1035200007480168012902D04FF0FF3010BD054A5D
:10353000002111700221016001F09CF9002010BDF2
:10354000040100201FED00E038B50D4600240028DE
:1035500006D0EFF30581D9B12DB16FF0030422E05D
:103560006FF003041FE0002100916A4601F08EFD18
:10357000012802D06FF0020415E0009898B10B49C1
:103580004FF080500860BFF34F8FBFF36F8F0AE09A
:10359000294601F0C9FD012805D015B16FF00104DD
:1035A00001E06FF00204204638BD000004ED00E0A9
:1035B000F8B50E4614464FF00005EFF305810029DB
:1035C0004ED100284CD086424AD84A1E5CB1A3682E
:1035D00023B1E168502901D3012205E023B9E16854
:1035E00011B9002200E00022B2F1FF3F38D00128DB
:1035F00009D0012A2AD0314601F05AFA05467DB396
:1036000054B3216829E0012A16D0032200210120A9
:1036100001F08DFA0546002DF1D0002EEFD00023E9
:103620001A461946284601F025FB0128E7D028460E
:1036300001F014F80025E2E7032000900022114673
:103640000120A36801F095FA0546E4E73146A26837
:1036500001F04CFA0546D2E70021284600F0EAFFC7
:103660002846F8BD38B5002400280CD0EFF30581BA
:10367000B9B100210091694601F013FC012805D081
:103680006FF0020416E06FF0030413E0009888B1B5
:1036900009494FF080500860BFF34F8FBFF36F8F21
:1036A00008E000231A46194601F0E4FA012801D087
:1036B0006FF00204204638BD04ED00E02DE9F04330
:1036C00085B00B464FF000070497EFF30581002902
:1036D0004ED100284CD080244FF0180C8946491E4A
:1036E00052B3166806B1B146956905B1AC46ACF166
:1036F0000105382D03D2157915F0010F03D005B05F
:103700000020BDE8F083556905B1AC08D2F8088007
:10371000B8F1000F07D0D6685C2E04D3166916B135
:103720000DB1012109E0B8F1000F06D1D56825B926
:10373000156915B9002100E00021012901D061B10E
:1037400016E09168126901920291CDF800C02246FC
:10375000494601F021FE04900AE004A90191A2B2B9
:10376000CDF800C0494601F0E1FD012800D00497E2
:10377000049805B0BDE8F0832DE9F04104460F46FA
:10378000134EF5683068001D00F050FEB4F1FF3FA5
:1037900007D137B13068BDE8F041011D0D4800F098
:1037A00098BE2C4430684460AC4206D23068011D9B
:1037B000B06BBDE8F04100F071BE3068011D706B68
:1037C00000F06CFEB06A844200D2B462BDE8F081C1
:1037D000B40000202428002070B5044600F086FEC6
:1037E0001C4DA868401CA860286810B1686938B1F1
:1037F0000CE02C60A868012808D100F09DF905E0D4
:103800002868E16AC06A884200D82C60686A401C57
:1038100068626064E06A2969884200D928610E49BB
:1038200000EB800001EB8000211D00F052FE00F053
:103830007DFE686900280CD02868E16AC06A884269
:1038400007D206494FF080500860BFF34F8FBFF397
:103850006F8F70BDB40000207423002004ED00E0E1
:1038600038B500F043FE0F4C2068B8B90E4800F0A0
:1038700007FE0E4800F004FE0B48E06014302061A3
:1038800000200B4B009003F1500210210A2001F0A0
:1038900070F9206010B107A100F0CCFEBDE83840FF
:1038A00000F044BEF0000020282900203C29002020
:1038B00038280020546D72510000000070B50D4C86
:1038C0006068002815D00C4E00F010FEF068C56846
:1038D000281D00F0ABFDA068401EA0606068401E7F
:1038E000606000F023FE284600F051F86068002870
:1038F000EAD170BDB4000020102800200B46026CF5
:10390000002A0CD0C1681144C160D0F808C06145DC
:1039100001D30168C160C1681846FCF7E2BC70477A
:103920002DE9F041044616460027A56B226C002ABB
:1039300010D0C6B1E068FCF7D4FCE168206C091A2D
:10394000E1602268914202D2A168081AE060022E6A
:1039500016D017E02068A8B9A06801F0C7FD074697
:103960000020A0600EE06068FCF7BBFC216C606882
:1039700008446060A168884204D32068606001E068
:1039800005B16D1E681CA0633846BDE8F08110B516
:10399000044694F8591000290BD0012911D00229AE
:1039A00014D0502080F31188BFF34F8FBFF36F8F77
:1039B000FEE7206B00F0D0FD2046BDE8104000F08F
:1039C000CBBD2046BDE8104000F0C6BD10BD416A29
:1039D000002904D0006B0068C0F138007047002057
:1039E000704700000749CA681168002904D0002107
:1039F000016019B1002070470121F9E7D068006823
:103A000070470000F00000204FF47051104810F093
:103A1000070F06D0C01D20F007000D49411AC1F55F
:103A200070510C4A1060002353600144083921F0A2
:103A30000701183A11604B600B600B1A436001607C
:103A40004068906050604FF0004050617047000047
:103A50000830002020010020074E4FF08054074D11
:103A6000FFF72CFF30680128FAD92C60BFF34F8F85
:103A7000BFF36F8FF4E700007423002004ED00E033
:103A800070B51D46049C002909D02260E0632164C2
:103A90000121204601F0A6F884F84C5070BD246046
:103AA000F4E72DE9F05F82460B9F0A9D0C9C0E46C1
:103AB00090469B464FEA8801A522206BFCF723FC29
:103AC000206BA8F1010100EB810020F007094FF005
:103AD000000866B100202218315C82F83410315C95
:103AE00011B1401C1028F6D384F8438001E084F81B
:103AF0003480382D00D33725E562E564C4F8508062
:103B0000201D00F0C8FC04F1180000F0C4FC246182
:103B1000C5F13800A0616462C4F8548084F858800C
:103B20005A465146484600F0D1FA2060002F00D096
:103B30003C60BDE8F09F000070B500240F4D04EB21
:103B4000840005EB800000F09BFC641C382CF6D34D
:103B50000B4800F095FC0B4800F092FC0A4800F07E
:103B60008FFC0A4800F08CFC094800F089FC0948E9
:103B7000034941631431816370BD00007423002048
:103B8000D4270020E8270020FC2700201028002050
:103B900024280020B400002010B4144900E011468D
:103BA0000A688242FBD34B6803EB010C844503D1C6
:103BB00040681844486008460C68D0F804C00CEB14
:103BC0000003A3420CD10A4B1B689A4206D05268EC
:103BD000624442600A681268026002E0036000E02A
:103BE0000260814200D0086010BC704720010020B4
:103BF0000801002010B5002441600061DFF838C0E2
:103C000091420BD8D11A8269914201D3012410E06C
:103C1000011DDCF8100000F041FC0AE09A4203D2DA
:103C2000994201D3012404E0011DDCF80C0000F0EE
:103C300035FC204610BD0000F000002010B5044601
:103C400000F054FCA06B20B1002400F06FFC204673
:103C500010BD0124F9E710B5044600F047FCA06B45
:103C6000E16B884201D1012400E0002400F05EFCF9
:103C7000204610BDF8B505460E461748C068C06816
:103C8000C468201D00F0D2FB94F8280010F0040F47
:103C900018D0A0692B46411932462046FFF7AAFFEB
:103CA000A0B100200346014600902A46204601F0BC
:103CB00073FD58B9502080F31188BFF34F8FBFF3C5
:103CC0006F8FFEE720F0010084F82800216A01B020
:103CD0002046BDE8F0400847F000002030B587B02E
:103CE000414D002202A9286801F02CF9002875D066
:103CF0000298002803DA039A0599049890470298DD
:103D0000002864DB049C606910B1201D00F08EFB6C
:103D100001A800F0B3F8024602980A2857D2DFE85B
:103D200000F00505052F364D05052F3694F82800BF
:103D300040F0010084F828000398A169034601447B
:103D40002046FFF757FF002841D0216A20468847C8
:103D500094F8280010F0040F39D000200090039848
:103D6000A169002342181946204601F015FD70BBD9
:103D7000502080F31188BFF34F8FBFF36F8FFEE7A2
:103D800094F8280020F0010084F828001FE094F83F
:103D9000280040F0010084F828000398A06128B1B1
:103DA000811813462046FFF725FF10E0502080F3CE
:103DB0001188BFF34F8FBFF36F8FFEE794F8280091
:103DC00010F0020F0CD020F0010084F8280000222F
:103DD00002A9286801F0B6F8002889D107B030BDE3
:103DE000204600F0B9FBF2E7F0000020F8B50546E8
:103DF0000C4600F087FD684600F040F80646009843
:103E000010B101F02FFCF8BD44B9B54206D801F05D
:103E100029FC31462846FFF72DFFF8BD0C481CB1A0
:103E20000169096891B10024A91B2246006800F0CD
:103E300043FC01F017FC0028EFD106494FF08050F9
:103E40000860BFF34F8FBFF36F8FF8BD0124EBE71E
:103E5000F000002004ED00E00749486B00680028EE
:103E600005D0486BC068C0684068886270474FF0F2
:103E7000FF30886270470000B400002070B504462F
:103E800001F0C8FA0546074EB068854204D200F03A
:103E90000BF80120206001E000202060B56028467A
:103EA00070BD0000F0000020F8B51C4EF0680068FE
:103EB000002826D00027F068C0680568C468201D67
:103EC00000F0B4FA216A2046884794F8280010F0E0
:103ED000040F12D0A0692844A84206D9606024616A
:103EE000211DF06800F0DAFA07E000232A4619469F
:103EF0002046009701F050FC40B1F06800680028AF
:103F0000D9D1F0683169F1603061F8BD502080F39B
:103F10001188BFF34F8FBFF36F8FFEE7F0000020D3
:103F20000A484068B0F1FF3F07D0502080F3118865
:103F3000BFF34F8FBFF36F8FFEE7502080F31188E0
:103F4000BFF34F8FBFF36F8FFEE700002801002003
:103F500082B001A8FFF746FD0199FFF747FFFFF781
:103F6000BDFEF6E770B5044600F0C0FA94F945507E
:103F7000002D0CDD606A50B104F1240001F036FB25
:103F800008B100F0EFFB681E45B2002DF2DC4FF0E7
:103F9000FF3684F8456000F0C9FA00F0A7FA94F9FA
:103FA0004450002D0CDD206950B104F1100001F0E7
:103FB0001DFB08B100F0D6FB681E45B2002DF2DCF7
:103FC00084F84460BDE8704000F0B0BA2DE9F041DB
:103FD0000546002600F096FC344F386808B9FFF714
:103FE00013FD7869054251D19DB1083515F0070FD1
:103FF0000FD005F00700C0F10800054415F0070FC9
:1040000007D0502080F31188BFF34F8FBFF36F8F1D
:10401000FEE7002D3AD07868854237D82449084613
:10402000046801E0214604466068A84202D2206884
:104030000028F7D13868844228D0086800F10806C3
:10404000206808606068411B10290FD9601910F0C2
:10405000070F07D0502080F31188BFF34F8FBFF3B5
:104060006F8FFEE741606560FFF796FD61687868D5
:10407000401A7860BA68904200D2B8607869084304
:10408000606000202060F868401CF86001F0EAFAE7
:1040900016F0070F07D0502080F31188BFF34F8F21
:1040A000BFF36F8FFEE73046BDE8F08108010020C6
:1040B0002001002004490868002803D00868026D28
:1040C000521C026508687047B4000020001F4FF0C2
:1040D00080730360001F21F001010160001F05498A
:1040E000016014380260001F6FF002010160203887
:1040F00070470000213F000810B5094C012204213F
:104100002046FDF737F9012208212046FDF732F954
:1041100043F69820FDF70EF802490220087010BD02
:1041200000080240780000202DE9F04106460D46C7
:10413000002003E0315C30313154401CA842F9DBEF
:104140003CA14048FEF75AFB3E48FCF700F982B21A
:104150003C493D48FEF721F83C48FCF7F8F8024698
:104160003A493848FEF74AFB3848FCF7F0F807466A
:1041700036481330FCF7EBF8324C34490246E0196C
:104180001331FEF73BFB31481330FCF7E0F80744EE
:104190002E483030FCF7DBF82C490246E01930316C
:1041A000FEF72CFB29483030FCF7D1F807442748AC
:1041B0001738FCF7CCF825490246E0191739FEF705
:1041C0001DFB22481738FCF7C2F80744E0192A46BD
:1041D0003146FCF786F81D483D441B38FCF7B7F81C
:1041E0001A49024660191B39FEF708FB17481B38AD
:1041F000FCF7ADF8284482B221461348FDF7CDFF05
:1042000013A12046FEF7FAFA2046FCF7A0F882B286
:1042100021460D48FDF7C1FF12A12046FEF7EEFA38
:104220002046FCF794F82146BDE8F04182B20648EA
:10423000FDF7B3BF41542B48545450494E49540DD7
:104240000A000000380100203C2200201F0000204E
:1042500041542B48545450414354494F4E3D300D26
:104260000A00000041542B485454505445524D0DFF
:104270000A00000070B50C460546002103E0685CAA
:1042800030306854491CA142F9DB1CA11E48FEF7DE
:10429000B5FA1D48FCF75BF882B21B491B48FDF7D5
:1042A0007CFF4FF47A70FCF745FF194A19A11648B4
:1042B000FEF7A4FA1448FCF74AF882B212491348F0
:1042C000FDF76BFF6420FCF735FF224629460E48B8
:1042D000FCF707F80C481A22204412A1FEF78EFAC8
:1042E0000948FCF734F882B207490848FDF755FF42
:1042F000BDE870400CA0FEF771BA000041542B439A
:104300004D47463D310D0A00380100203C22002077
:104310001000002041542B434D47533D222573226A
:104320000D0A0000256300007468652064617461F3
:10433000207761732073656E7420746F2070686FCE
:104340006E65207468726F7567682053494D373603
:1043500030302E0A0D00000070B512A11348FEF790
:104360004DFA1E2212491348FDF782FE104D124CE1
:10437000583D4FF47A7610E028680A2802D90120C7
:10438000207070BD0948FBF7E2FF82B20749094877
:10439000FDF703FF3046FCF7CDFE20780028EBD177
:1043A00070BD000041540D0A0000000038010020DB
:1043B000580000203C22002078000020064D4FF0DD
:1043C000FF342146E868FFF7BFF800F007F8012046
:1043D000FFF77AF8F5E7000094000020094802781A
:1043E000022A0AD0084941F2060008448988032AB3
:1043F00005D0042A05D1FFF73DBFFFF7ADBFFFF79A
:1044000093BE7047780000200C0200201CB505A167
:10441000D1E90001CDE9000108216846FEF798FEC8
:104420001CBD000001010303030809100169436872
:1044300082689A60836842685A604A68824201D101
:1044400082684A60002202610868401E08600868AD
:1044500070470000034B036003F15C00086080209C
:104460001060704750290020044B036003F15C008A
:1044700008604FF48070106070470000AC2B002083
:1044800000F1080141604FF0FF328260C1600161BC
:1044900000210160704700210161704710B4D1F81C
:1044A00000C0BCF1FF3F02D000F1080202E0026947
:1044B00004E01A4653681C686445FAD953684B6097
:1044C00099608A60516008610168491C016010BCF4
:1044D000704742684A6093688B6093685960916046
:1044E00008610168491C016070470000502080F39A
:1044F0001188BFF34F8FBFF36F8F0A494868401C84
:10450000486001280CD10848006810F0FF0F07D060
:10451000502080F31188BFF34F8FBFF36F8FFEE7FA
:10452000704700002801002004ED00E009494868B8
:10453000002806D0401E4860002801D180F3118871
:104540007047502080F31188BFF34F8FBFF36F8FF8
:10455000FEE700002801002070B500282AD0A0F155
:104560000804154D60686969084207D1502080F33E
:104570001188BFF34F8FBFF36F8FFEE722683AB108
:10458000502080F31188BFF34F8FBFF36F8FFEE78A
:104590008843606000F0B6F9606869680844686044
:1045A0002046FFF7F9FA2869401C2861BDE87040F1
:1045B00001F058B870BD0000080100204FF0E02065
:1045C00000210161816105494FF47A720968B1FBEC
:1045D000F2F1491E4161072101617047B0000020DE
:1045E00010B5FBF737FE114910280ED300F1E0207B
:1045F00090F8F0030A78904207D2502080F3118897
:10460000BFF34F8FBFF36F8FFEE7094800688968DB
:1046100000F4E060884207D9502080F31188BFF38E
:104620004F8FBFF36F8FFEE710BD00002801002001
:104630000CED00E00022084B53F832C0BCF1000F33
:1046400003D0521C082AF7D3704743F8321003EB0B
:10465000C2014860704700003423002010B50446B2
:10466000002C0BD0204600F013F894F846000028E8
:104670000CD12046BDE81040FFF76EBF502080F3FC
:104680001188BFF34F8FBFF36F8FFEE710BD00009F
:104690000021084A02EBC1035B68834206D1002077
:1046A00042F8310002EBC10148607047491C0829FB
:1046B000F0D370473423002070B504460D461646EB
:1046C000FFF714FF94F94400B0F1FF3F4FF00000F2
:1046D00001D184F8440094F94510B1F1FF3F01D1B4
:1046E00084F84500FFF722FFA06B28B9324629461F
:1046F00004F1240000F056F82046BDE87040FFF7B2
:1047000031BC000010B502460020002A12D00F482C
:10471000006B38B1502080F31188BFF34F8FBFF387
:104720006F8FFEE700F0EEF800211046FFF724F847
:1047300000F098FF002807D105494FF0805008602D
:10474000BFF34F8FBFF36F8F10BD0000B400002088
:1047500004ED00E002490A6A0260C96841607047DE
:10476000B400002001490120C8617047B400002056
:1047700010B50C4600280BD0094A126802F1180146
:10478000FFF78CFE2046BDE810400121FEF7F4BF84
:10479000502080F31188BFF34F8FBFF36F8FFEE778
:1047A000B400002070B50D46144600280DD00B490A
:1047B00009681831FFF78DFE0CB14FF0FF35214627
:1047C0002846BDE87040FEF7D7BF502080F311881F
:1047D000BFF34F8FBFF36F8FFEE70000B4000020E0
:1047E00070B5044600283FD0226DA2B1E06C88422B
:1047F00000D30146E06A884236D0012A34D11B4DED
:104800002A6894420FD1502080F31188BFF34F8F54
:10481000BFF36F8FFEE7502080F31188BFF34F8FF7
:10482000BFF36F8FFEE7E162A26912F0004F02D181
:10483000C1F13801A1610E4E00EB8000616906EB09
:104840008000814210D1201DFFF7F0FDE06A296948
:10485000884200D9286100EB800006EB8000211D12
:10486000BDE87040FFF735BE70BD0000B400002009
:104870007423002030B587B000250695059504AA5D
:1048800005A906A8FFF7E6FD069805990191029093
:104890000023009517A11948049A00F07DFD184CDB
:1048A000E06208B1012000E00020012801D100F001
:1048B0003FFF01280AD0B0F1FF3F19D1502080F30B
:1048C0001188BFF34F8FBFF36F8FFEE7502080F347
:1048D0001188BFF34F8FBFF36F8F4FF0FF30A0628F
:1048E00001206061E56007B0BDE8304000F048B8E5
:1048F00007B030BD49444C4500000000593A00085B
:10490000B40000200248016B491C0163704700009D
:10491000B4000020184B186B002802D00120D86189
:1049200070470020D8611869144900EB800251F8E3
:1049300022203AB9C0B1401E00EB800251F822207B
:10494000002AF7D000EB800201EB82014A6852682E
:104950004A6001F1080C624501D152684A60496819
:10496000C968196018617047502080F31188BFF33F
:104970004F8FBFF36F8FFEE7B40000207423002039
:1049800010B582B038480168384A914207D15020AA
:1049900080F31188BFF34F8FBFF36F8FFEE700687E
:1049A0003349884207D1502080F31188BFF34F8FDD
:1049B000BFF36F8FFEE72F4908780190FF20087042
:1049C000087800909DF800009DF8002000F0F000AD
:1049D000904207D0502080F31188BFF34F8FBFF370
:1049E0006F8FFEE79DF80000234C00F05000207010
:1049F0000720A0609DF8000010F0800F0BD0A06889
:104A0000401EA0609DF80000400000909DF800004E
:104A100010F0800FF3D1A068032807D0502080F356
:104A20001188BFF34F8FBFF36F8FFEE74FF44070D5
:104A3000A060019808701148016841F4700101609C
:104A4000016841F070410160FFF7B8FD002060602F
:104A5000FBF7C8FB0A48016841F040410160FBF7E1
:104A6000ADFB02B0002010BD00ED00E071C20F41AF
:104A700070C20F4100E400E02801002020ED00E0BA
:104A800034EF00E010B5502080F31188BFF34F8F52
:104A9000BFF36F8F00F0C4FC18B104494FF0805091
:104AA0000860002080F3118810BD000004ED00E0D4
:104AB00010B50C46002809D084420FD9502080F34D
:104AC0001188BFF34F8FBFF36F8FFEE7502080F345
:104AD0001188BFF34F8FBFF36F8FFEE702220021D3
:104AE00000F025F8002800D0846310BD38B50C46CE
:104AF000002809D084420FD9502080F31188BFF3D9
:104B00004F8FBFF36F8FFEE7502080F31188BFF304
:104B10004F8FBFF36F8FFEE70221134600220091F3
:104B2000114600F026F8002800D0846338BDF8B59F
:104B300005460E461746002D13D005FB06F05030F3
:104B4000FFF744FA044654B104F15002002084F8FF
:104B500046003B46314628460094FEF791FF20462A
:104B6000F8BD502080F31188BFF34F8FBFF36F8FD4
:104B7000FEE738B5049D002804D05BB102B189B1CD
:104B8000C2B120E0502080F31188BFF34F8FBFF3F4
:104B90006F8FFEE7502080F31188BFF34F8FBFF374
:104BA0006F8FFEE7502080F31188BFF34F8FBFF364
:104BB0006F8FFEE739B1502080F31188BFF34F8F1C
:104BC000BFF36F8FFEE74FF0500CCDF800C01C46CE
:104BD000012384F846302B460094FEF751FF20460F
:104BE00038BD000070B504460D46002C25D0FFF7F7
:104BF0007DFC226CE16B206801FB0200A0600020BC
:104C0000A06320686060E16B226C2068491E01FB94
:104C10000200E0604FF0FF3084F8440084F8450063
:104C20009DB104F11000FFF72BFC04F12400FFF705
:104C300027FCFFF77BFC012070BD502080F311881A
:104C4000BFF34F8FBFF36F8FFEE720690028F0D0CE
:104C500004F1100000F0CAFC0028EAD004494FF02B
:104C600080500860BFF34F8FBFF36F8FE1E7000004
:104C700004ED00E02DE9FF4782B004468A461F4656
:104C80000025002C03D0BAF1000F08D011E050200D
:104C900080F31188BFF34F8FBFF36F8FFEE7206C57
:104CA00038B1502080F31188BFF34F8FBFF36F8F5F
:104CB000FEE7022F0AD1E06B012807D0502080F3D5
:104CC0001188BFF34F8FBFF36F8FFEE700F094FBA7
:104CD00048B9049838B1502080F31188BFF34F8F42
:104CE000BFF36F8FFEE700264FF08058DFF8F0909B
:104CF000FFF7FCFBA06BE16B884205D3022F03D0CA
:104D0000049808B335B329E03A4651462046FEF7E9
:104D100007FE616A59B104F1240000F067FC68B134
:104D2000C9F80080BFF34F8FBFF36F8F06E028B143
:104D3000C9F80080BFF34F8FBFF36F8FFFF7F6FB0B
:104D400006B00120BDE8F087FFF7F0FB06B00020B9
:104D5000BDE8F0876846FFF7FDFC0125FFF7E6FB9D
:104D6000FFF7D0FDFFF7C2FB94F94400B0F1FF3F1D
:104D700001D184F8446094F94500B0F1FF3F01D1BE
:104D800084F84560FFF7D2FB04A9684600F08EFA6C
:104D900040B12046FFF7E6F800F064FC06B00020C2
:104DA000BDE8F0872046FEF756FF90B104F11000F1
:104DB0000499FFF7DDFC2046FFF7D4F800F052FC21
:104DC000002895D1C9F80080BFF34F8FBFF36F8FD4
:104DD0008EE72046FFF7C6F800F044FC88E70000A5
:104DE00004ED00E02DE9F0470446894617461E46CB
:104DF000002C03D0B9F1000F08D011E0502080F34F
:104E00001188BFF34F8FBFF36F8FFEE7206C38B16F
:104E1000502080F31188BFF34F8FBFF36F8FFEE7F1
:104E2000022E0AD1E06B012807D0502080F31188B0
:104E3000BFF34F8FBFF36F8FFEE7FFF7D1FB50201B
:104E4000EFF3118880F31188BFF34F8FBFF36F8F9B
:104E5000A06BE16B884206D3022E04D0002088F3B9
:104E60001188BDE8F08794F94550A06B3246494659
:104E70002046FEF755FDB5F1FF3F04D0681C84F8CD
:104E800045000120EBE7606A0028FAD004F1240015
:104E900000F0ACFB0028F4D0002FF2D001203860E5
:104EA000EFE770B504460D46002C09D0206C78B1B0
:104EB000502080F31188BFF34F8FBFF36F8FFEE751
:104EC000502080F31188BFF34F8FBFF36F8FFEE741
:104ED000206848B9A06838B1502080F31188BFF32A
:104EE0004F8FBFF36F8FFEE7FFF77AFB5020EFF392
:104EF000118680F31188BFF34F8FBFF36F8FA06BC4
:104F0000E16B814219D994F94520401CA063B2F1AC
:104F1000FF3F04D0501C84F8450001200EE0606A79
:104F20000028FAD004F1240000F060FB0028F4D03F
:104F3000002DF2D001202860EFE7002086F31188D1
:104F400070BD00002DE9F74783B004468A4600256E
:104F5000002C03D0BAF1000F08D011E0502080F3EC
:104F60001188BFF34F8FBFF36F8FFEE7206C38B10E
:104F7000502080F31188BFF34F8FBFF36F8FFEE790
:104F800000F03AFA48B9059838B1502080F31188FA
:104F9000BFF34F8FBFF36F8FFEE700274FF08058AE
:104FA000DFF8E490FFF7A2FAA66BC6B1514620469F
:104FB000FEF7A4FC701EA063206950B104F110003C
:104FC00000F014FB28B1C9F80080BFF34F8FBFF386
:104FD0006F8FFFF7ABFA06B00120BDE8F0870598A8
:104FE00008B135B109E0FFF7A1FA06B00020BDE82D
:104FF000F0876846FFF7AEFB0125FFF797FAFFF74A
:1050000081FCFFF773FA94F94400B0F1FF3F01D13E
:1050100084F8447094F94500B0F1FF3F01D184F861
:105020004570FFF783FA05A9684600F03FF968B1BB
:105030002046FEF797FF00F015FB2046FEF7FEFD29
:105040000028AFD006B00020BDE8F0872046FEF76C
:10505000F5FD90B104F124000599FFF789FB204686
:10506000FEF780FF00F0FEFA00289BD1C9F800800F
:10507000BFF34F8FBFF36F8F94E72046FEF772FFA9
:1050800000F0F0FA8EE7000004ED00E02DE9F047B3
:10509000044689461746002C03D0B9F1000F08D00A
:1050A00011E0502080F31188BFF34F8FBFF36F8F53
:1050B000FEE7206C38B1502080F31188BFF34F8F8A
:1050C000BFF36F8FFEE7FFF78BFA5020EFF31188E5
:1050D00080F31188BFF34F8FBFF36F8FA56BEDB1D6
:1050E00094F9446049462046FEF708FC681EA06318
:1050F000B6F1FF3F04D0701C84F8440001200EE09C
:1051000020690028FAD004F1100000F06FFA00289E
:10511000F4D0002FF2D001203860EFE7002088F3B0
:105120001188BDE8F08700002DE9F34383B0044601
:1051300000250026002C09D0206C78B1502080F387
:105140001188BFF34F8FBFF36F8FFEE7502080F3BE
:105150001188BFF34F8FBFF36F8FFEE700F04CF95C
:1051600048B9049838B1502080F31188BFF34F8FAD
:10517000BFF36F8FFEE700274FF08058DFF82891CC
:10518000FFF7B4F9A06BC8B1401EA063206810B946
:10519000FEF790FFA060206950B104F1100000F00C
:1051A00025FA28B1C9F80080BFF34F8FBFF36F8F86
:1051B000FFF7BCF905B00120BDE8F083049808B101
:1051C0007DB112E03EB1502080F31188BFF34F8FC4
:1051D000BFF36F8FFEE7FFF7A9F905B00020BDE828
:1051E000F0836846FFF7B6FA0125FFF79FF9FFF74E
:1051F00089FBFFF77BF994F94400B0F1FF3F01D13F
:1052000084F8447094F94500B0F1FF3F01D184F86F
:105210004570FFF78BF904A9684600F047F8D0B154
:105220002046FEF79FFE00F01DFA2046FEF706FD21
:105230000028A5D05EB1FFF759F92046FEF7C7FB5D
:10524000A26801461046FFF7CBFAFFF76FF905B0E9
:105250000020BDE8F0832046FEF7F0FCE8B12068AE
:1052600038B9FFF743F9A06800F080F90646FFF768
:105270005DF904F124000499FFF77AFA2046FEF75D
:1052800071FE00F0EFF900287FF47AAFC9F80080D2
:10529000BFF34F8FBFF36F8F72E72046FEF762FEBA
:1052A00000F0E0F96CE7000004ED00E070B50546A1
:1052B0000C46002D15D0E4B1FFF718F9DFF868C0EF
:1052C000DCF80C006B68C11A2268B2F1FF3F18D0FD
:1052D0002E68DCF820C0664515D0834213D801241F
:1052E0001DE0502080F31188BFF34F8FBFF36F8F05
:1052F000FEE7502080F31188BFF34F8FBFF36F8F0D
:10530000FEE700240BE08A4206D9501A20602846A6
:10531000FFF720FA002402E0002020600124FFF7BC
:1053200005F9204670BD0000B40000202DE9F04FC3
:1053300085B081460F9F0E9E8A4690469B464FEA57
:105340008800FEF743FE054628000AD05C20FEF7E1
:105350003DFE04460CB1256304E02846FFF7FCF847
:1053600000E000249CB1002084F8590003905B46C3
:10537000424651460197009602944846FEF791FB3B
:105380002046FEF729FA05B00120BDE8F08F05B0F0
:105390004FF0FF30BDE8F08F70B586B00646DDF8FF
:1053A00028C00C9C0B98002816D0ECB15C25049505
:1053B0002063022084F85900002005AD0390CDF849
:1053C00000C0019502943046FEF76BFB2046FEF7C5
:1053D00003FA059806B070BD502080F31188BFF322
:1053E0004F8FBFF36F8FFEE7502080F31188BFF31C
:1053F0004F8FBFF36F8FFEE705484169002903D047
:10540000006B18B1002070470120704702207047E0
:10541000B40000200148C06870470000B4000020BC
:105420002DE9F04100262F4F386B002805D0B869D0
:10543000401CB8613046BDE8F081F868451CFD604D
:105440009DB9786B006838B1502080F31188BFF3A4
:105450004F8FBFF36F8FFEE7786BB96B7963B863DB
:10546000386A401C3862FEF7F7FCB86ADFF87880CB
:1054700085420DD3786B006838B1786BC068C4681A
:105480006068854212D2B86202E04FF0FF30B86225
:105490003868C06A00EB800058F82000012800D965
:1054A0000126F8690028C5D00126C3E7201DFEF7B4
:1054B000BDFFA06A18B104F11800FEF7B7FFE16A5A
:1054C0003869814200D9396101EB810008EB800025
:1054D000211DFEF7FEFFE06A3968C96A8842C9D318
:1054E0000126C7E7B40000207423002070B50446ED
:1054F0000021002833D01B4D2868844207D050205B
:1055000080F31188BFF34F8FBFF36F8FFEE7206DDD
:1055100038B1401E2065E36CE26A9A421FD040B168
:105520001DE0502080F31188BFF34F8FBFF36F8FC2
:10553000FEE7201DFEF77AFFE06CE062C0F1380064
:10554000A061E06A2969884200D92861064900EB18
:10555000800001EB8000211DFEF7BBFF0121084602
:1055600070BD0000B40000207423002070B5044614
:105570000020002C2DD01B4DE16A2A68D26A91428E
:1055800028D2A06910F0004F04D12868C06AC0F189
:105590003800A061E06A144E00EB8000616906EB00
:1055A0008000814211D1201DFEF740FF2868C06AAB
:1055B000E0622969884200D9286100EB800006EB8F
:1055C0008000211DFEF785FF02E02868C06AE062C6
:1055D000012070BDE16C2A68D26A9142F9D20120A3
:1055E00070BD0000B40000207423002070B5C068B6
:1055F000C468002C14D004F11800FEF717FF164DF4
:10560000286BA8B104F118011448FEF762FFE06AA4
:105610002968C96A88421CD901200121E96170BD4D
:10562000502080F31188BFF34F8FBFF36F8FFEE7D9
:10563000201DFEF7FBFEE06A2969884200D9286137
:10564000074900EB800001EB8000211DFEF741FFC0
:10565000DDE7002070BD0000B4000020FC27002022
:10566000742300202DE9F047002400272D4D286BDE
:10567000002807D0FEF73AFF286B401E2863286BEE
:1056800040B149E0502080F31188BFF34F8FBFF342
:105690006F8FFEE7A86800283ED0234E30684FF099
:1056A000010800B3A6F59169F068C46804F1180018
:1056B000FEF7BCFE201DFEF7B9FEE06A29698842AC
:1056C00000D9286100EB800009EB8000211DFEF766
:1056D00000FFE06A2968C96A884201D3C5F81C80C6
:1056E00030680028E0D10CB1FEF7B6FBAC694CB1D4
:1056F000FFF796FE08B1C5F81C80641E002CF7D198
:105700000020A861E86938B1012708493807086016
:10571000BFF34F8FBFF36F8FFEF708FF3846BDE82A
:10572000F0870000B4000020FC27002004ED00E01A
:1057300030B587B00024FEF793F8134D2868B0B158
:1057400000200690059004AA05A906A8FEF78CFE85
:1057500005990698022200920191029000230BA164
:105760000C48049AFFF718FE686000B1012414B1D8
:1057700007B0204630BD502080F31188BFF34F8F13
:10578000BFF36F8FFEE70000F0000020546D722021
:1057900053766300513F0008F0B585B084460A9DFA
:1057A00016461F460022BCF1000F14D0164C20688C
:1057B00000B300910196CDF808C006291BDAFFF767
:1057C0001BFE02280FD000231A4669462068FFF707
:1057D00051FA024615E0502080F31188BFF34F8F35
:1057E000BFF36F8FFEE700232A4669462068FFF764
:1057F00041FA024605E000233A466946FFF7F2FA0D
:10580000024605B01046F0BDF0000020BC5800086C
:105810000000000000000000000000000000000088
:10582000000200001800000000000000000000005E
:10583000AC5800080000000000000000000000005C
:10584000000000000002000018000000000000003E
:10585000000000009C58000800000000000000004C
:10586000000000008C58000800000000000000004C
:10587000000000000000000000000000010203041E
:1058800006070809000000000102030473696D3770
:105890003630305F73656D610000000063616E5FDC
:1058A000636F6D5F73656D610000000073696D3734
:1058B0003630305F7461736B0000000063616E5FAF
:1058C000636F6D5F7461736B00000000EC5800083B
:1058D00000000020380100003A0800085459000870
:1058E00038010020D06E000054280008512C220DF1
:1058F0000A00266669656C643D004A4C2B383631D7
:10590000333635353532303536350041542B485431
:105910005450504152413D2255524C222C00226895
:10592000747470733A2F2F6170692E7878782E63B3
:105930006F6D2F7570646174653F006170695F6B96
:1059400065793D001E42019210037A24F495AAAABB
:04595000AAAA0000FF
:040000050800018965
:00000001FF
